{
  "contractName": "ERC20",
  "abi": [
    {
      "inputs": [
        {
          "internalType": "string",
          "name": "name_",
          "type": "string"
        },
        {
          "internalType": "string",
          "name": "symbol_",
          "type": "string"
        }
      ],
      "stateMutability": "nonpayable",
      "type": "constructor"
    },
    {
      "anonymous": false,
      "inputs": [
        {
          "indexed": true,
          "internalType": "address",
          "name": "owner",
          "type": "address"
        },
        {
          "indexed": true,
          "internalType": "address",
          "name": "spender",
          "type": "address"
        },
        {
          "indexed": false,
          "internalType": "uint256",
          "name": "value",
          "type": "uint256"
        }
      ],
      "name": "Approval",
      "type": "event"
    },
    {
      "anonymous": false,
      "inputs": [
        {
          "indexed": true,
          "internalType": "address",
          "name": "from",
          "type": "address"
        },
        {
          "indexed": true,
          "internalType": "address",
          "name": "to",
          "type": "address"
        },
        {
          "indexed": false,
          "internalType": "uint256",
          "name": "value",
          "type": "uint256"
        }
      ],
      "name": "Transfer",
      "type": "event"
    },
    {
      "inputs": [
        {
          "internalType": "bytes32",
          "name": "c__0xdb6a53a0",
          "type": "bytes32"
        }
      ],
      "name": "c_0xdb6a53a0",
      "outputs": [],
      "stateMutability": "pure",
      "type": "function"
    },
    {
      "inputs": [
        {
          "internalType": "bytes32",
          "name": "c__0xc7c71535",
          "type": "bytes32"
        }
      ],
      "name": "c_0xc7c71535",
      "outputs": [],
      "stateMutability": "pure",
      "type": "function"
    },
    {
      "inputs": [],
      "name": "name",
      "outputs": [
        {
          "internalType": "string",
          "name": "",
          "type": "string"
        }
      ],
      "stateMutability": "view",
      "type": "function"
    },
    {
      "inputs": [],
      "name": "symbol",
      "outputs": [
        {
          "internalType": "string",
          "name": "",
          "type": "string"
        }
      ],
      "stateMutability": "view",
      "type": "function"
    },
    {
      "inputs": [],
      "name": "decimals",
      "outputs": [
        {
          "internalType": "uint8",
          "name": "",
          "type": "uint8"
        }
      ],
      "stateMutability": "view",
      "type": "function"
    },
    {
      "inputs": [],
      "name": "totalSupply",
      "outputs": [
        {
          "internalType": "uint256",
          "name": "",
          "type": "uint256"
        }
      ],
      "stateMutability": "view",
      "type": "function"
    },
    {
      "inputs": [
        {
          "internalType": "address",
          "name": "account",
          "type": "address"
        }
      ],
      "name": "balanceOf",
      "outputs": [
        {
          "internalType": "uint256",
          "name": "",
          "type": "uint256"
        }
      ],
      "stateMutability": "view",
      "type": "function"
    },
    {
      "inputs": [
        {
          "internalType": "address",
          "name": "recipient",
          "type": "address"
        },
        {
          "internalType": "uint256",
          "name": "amount",
          "type": "uint256"
        }
      ],
      "name": "transfer",
      "outputs": [
        {
          "internalType": "bool",
          "name": "",
          "type": "bool"
        }
      ],
      "stateMutability": "nonpayable",
      "type": "function"
    },
    {
      "inputs": [
        {
          "internalType": "address",
          "name": "owner",
          "type": "address"
        },
        {
          "internalType": "address",
          "name": "spender",
          "type": "address"
        }
      ],
      "name": "allowance",
      "outputs": [
        {
          "internalType": "uint256",
          "name": "",
          "type": "uint256"
        }
      ],
      "stateMutability": "view",
      "type": "function"
    },
    {
      "inputs": [
        {
          "internalType": "address",
          "name": "spender",
          "type": "address"
        },
        {
          "internalType": "uint256",
          "name": "amount",
          "type": "uint256"
        }
      ],
      "name": "approve",
      "outputs": [
        {
          "internalType": "bool",
          "name": "",
          "type": "bool"
        }
      ],
      "stateMutability": "nonpayable",
      "type": "function"
    },
    {
      "inputs": [
        {
          "internalType": "address",
          "name": "sender",
          "type": "address"
        },
        {
          "internalType": "address",
          "name": "recipient",
          "type": "address"
        },
        {
          "internalType": "uint256",
          "name": "amount",
          "type": "uint256"
        }
      ],
      "name": "transferFrom",
      "outputs": [
        {
          "internalType": "bool",
          "name": "",
          "type": "bool"
        }
      ],
      "stateMutability": "nonpayable",
      "type": "function"
    },
    {
      "inputs": [
        {
          "internalType": "address",
          "name": "spender",
          "type": "address"
        },
        {
          "internalType": "uint256",
          "name": "addedValue",
          "type": "uint256"
        }
      ],
      "name": "increaseAllowance",
      "outputs": [
        {
          "internalType": "bool",
          "name": "",
          "type": "bool"
        }
      ],
      "stateMutability": "nonpayable",
      "type": "function"
    },
    {
      "inputs": [
        {
          "internalType": "address",
          "name": "spender",
          "type": "address"
        },
        {
          "internalType": "uint256",
          "name": "subtractedValue",
          "type": "uint256"
        }
      ],
      "name": "decreaseAllowance",
      "outputs": [
        {
          "internalType": "bool",
          "name": "",
          "type": "bool"
        }
      ],
      "stateMutability": "nonpayable",
      "type": "function"
    }
  ],
  "bytecode": "0x60806040523480156200001157600080fd5b50604051620028fe380380620028fe83398181016040528101906200003791906200029a565b6200006b7fa3881c8939bf99e13c2a4fc912cc5da96dbb1678ea965807932e4242e74663ae60001b6200017560201b60201c565b6200009f7f5fe2da8c79ff1cb560034346b29faa65b54fa3d972e8cf45c06eed275722551860001b6200017560201b60201c565b620000d37f28ff41d2fc5b4d5a349823e0f76a31491141e4cd174af4ca23ae2bf38941d95160001b6200017560201b60201c565b8160039080519060200190620000eb92919062000178565b50620001207f48999d2cbac5a28a9838305fffb667ed81b326d93c1adbf040647962d7f1a75f60001b6200017560201b60201c565b620001547f702e0ebf32a5e83b4e37bd20ca0152a76a3d24f74d863e480d17d119d6bcab9460001b6200017560201b60201c565b80600490805190602001906200016c92919062000178565b5050506200043e565b50565b8280546200018690620003aa565b90600052602060002090601f016020900481019282620001aa5760008555620001f6565b82601f10620001c557805160ff1916838001178555620001f6565b82800160010185558215620001f6579182015b82811115620001f5578251825591602001919060010190620001d8565b5b50905062000205919062000209565b5090565b5b80821115620002245760008160009055506001016200020a565b5090565b60006200023f620002398462000341565b6200030d565b9050828152602081018484840111156200025857600080fd5b6200026584828562000374565b509392505050565b600082601f8301126200027f57600080fd5b81516200029184826020860162000228565b91505092915050565b60008060408385031215620002ae57600080fd5b600083015167ffffffffffffffff811115620002c957600080fd5b620002d7858286016200026d565b925050602083015167ffffffffffffffff811115620002f557600080fd5b62000303858286016200026d565b9150509250929050565b6000604051905081810181811067ffffffffffffffff821117156200033757620003366200040f565b5b8060405250919050565b600067ffffffffffffffff8211156200035f576200035e6200040f565b5b601f19601f8301169050602081019050919050565b60005b838110156200039457808201518184015260208101905062000377565b83811115620003a4576000848401525b50505050565b60006002820490506001821680620003c357607f821691505b60208210811415620003da57620003d9620003e0565b5b50919050565b7f4e487b7100000000000000000000000000000000000000000000000000000000600052602260045260246000fd5b7f4e487b7100000000000000000000000000000000000000000000000000000000600052604160045260246000fd5b6124b0806200044e6000396000f3fe608060405234801561001057600080fd5b50600436106100cf5760003560e01c8063395093511161008c578063a457c2d711610066578063a457c2d714610228578063a9059cbb14610258578063dd62ed3e14610288578063f115e71c146102b8576100cf565b806339509351146101aa57806370a08231146101da57806395d89b411461020a576100cf565b806306fdde03146100d4578063095ea7b3146100f257806318160ddd1461012257806323b872dd14610140578063313ce56714610170578063369c5f931461018e575b600080fd5b6100dc6102d4565b6040516100e99190612158565b60405180910390f35b61010c60048036038101906101079190611da8565b6103ea565b604051610119919061213d565b60405180910390f35b61012a6104e4565b604051610137919061225a565b60405180910390f35b61015a60048036038101906101559190611d59565b610572565b604051610167919061213d565b60405180910390f35b61017861087a565b6040516101859190612275565b60405180910390f35b6101a860048036038101906101a39190611de4565b610907565b005b6101c460048036038101906101bf9190611da8565b61090a565b6040516101d1919061213d565b60405180910390f35b6101f460048036038101906101ef9190611cf4565b610a92565b604051610201919061225a565b60405180910390f35b610212610b5e565b60405161021f9190612158565b60405180910390f35b610242600480360381019061023d9190611da8565b610c74565b60405161024f919061213d565b60405180910390f35b610272600480360381019061026d9190611da8565b610f18565b60405161027f919061213d565b60405180910390f35b6102a2600480360381019061029d9190611d1d565b611012565b6040516102af919061225a565b60405180910390f35b6102d260048036038101906102cd9190611de4565b61111d565b005b60606103027fa69b5d2377a846ced319675dbdcfe08fb8212177e1d46c53d47fc8cb727c34c660001b61111d565b61032e7f09bbe142bcfaba152e3efaa244ea7ddb7c0ab457e9bcce8e005c66b753c7258460001b61111d565b61035a7f054f2c7eb9de1c9380576675eae9d22d981f82f254e1c8f0b59eadbbf3b273bc60001b61111d565b6003805461036790612394565b80601f016020809104026020016040519081016040528092919081815260200182805461039390612394565b80156103e05780601f106103b5576101008083540402835291602001916103e0565b820191906000526020600020905b8154815290600101906020018083116103c357829003601f168201915b5050505050905090565b60006104187ffeafbfff6e61041083ae88cb93a8a18856d86fb8b389767d080a809880ed119460001b61111d565b6104447f16895df22524b583889e0fac257b201aada2228194030a5577947fa55a5c5a7d60001b61111d565b6104707fef2a6c9bc0a52cf116d27f0ec0e56cfd3b7a40a23aa2f95c5c55dfdbb8902f7660001b61111d565b61048261047b611120565b84846111ac565b6104ae7f80069251431d942b00446a35256ee8e2f118483fbbb18aec0184663df6b7c82a60001b61111d565b6104da7f3113b16e84dc5f1ba79e00e24322b77c4b9ba26f588044addfea70570256220960001b61111d565b6001905092915050565b60006105127f149d48cb409da47aea2398a5fb3452bf50969c0d3ec749e4db0597e06ed7dd2060001b61111d565b61053e7f19d0b6aa0a4291bdc24bd79ea68fabd6527b6c8f1d01f45db15f31ae9da0703860001b61111d565b61056a7f5446521bb710043f0287ffa91d47fdc49ee83fb8ec6ce98bc6f78c872e35c42f60001b61111d565b600254905090565b60006105a07f85738b55765013d1a6d1652831c25baee5fd5b83d7ddac9bb11d464ff77f638160001b61111d565b6105cc7f096c9b8ec327bc7b99394e25eda019c84733054005fbf816babc7e7cb9decaf760001b61111d565b6105f87fa46ab547d624d224203217c5b338131e710d39118d64d70d63362e4c03c6ef2060001b61111d565b6106038484846115b3565b61062f7f9bfd4ca3fc6860ff9e07a13109cc1bff6467b79c486bb5adf431cc5d03ed9b7d60001b61111d565b61065b7f3ae3907f743bde5263e3b1389ef072b2c864c75108c303d0830f35d47a01129360001b61111d565b6000600160008673ffffffffffffffffffffffffffffffffffffffff1673ffffffffffffffffffffffffffffffffffffffff16815260200190815260200160002060006106a6611120565b73ffffffffffffffffffffffffffffffffffffffff1673ffffffffffffffffffffffffffffffffffffffff16815260200190815260200160002054905061070f7f77f6a91fa9097d1fad49c9b635c8f9abe7447381a5bcc67b2451d5cb4ce2317460001b61111d565b61073b7fff5a81a0c263411278efa451b8424db0c214e2747c1f8a0bf88a44543b131f4960001b61111d565b6107677f0c594dc76eb74f34eb45485e6e51686171abe1063827722403c59355004ef2af60001b61111d565b828110156107aa576040517f08c379a00000000000000000000000000000000000000000000000000000000081526004016107a1906121da565b60405180910390fd5b6107d67f82916b940a5e7affe26fdfe4f3436538607a5868fa6d980323960a138d75e87660001b61111d565b6108027fae1bc8d4cfccbe4a90ef443d07d81933e23cfb461b74ec764377335f1648c80360001b61111d565b6108168561080e611120565b8584036111ac565b6108427f2ef474079c15c6dfc5c71729ead88a36e1f0e745801d08f270288b9a941e995460001b61111d565b61086e7fc9b6b97e4a0e10e81037d2a1c0a8c83e6f029b29f4c976bac0ad1585c3ac8e3360001b61111d565b60019150509392505050565b60006108a87f5e569c1a19049d1b5ae03d5d23f92ef4cb80fa08e1f838f7c9eead1f7ca34b0460001b61111d565b6108d47f6a9a203ecdfa12c1554c17f2a2fb7ab3197936f76ed39d0212dafefa74f7301b60001b61111d565b6109007ffca682171fc54c651cf0ce920ae618de698641f3fc322029c33e769092e29f2a60001b61111d565b6006905090565b50565b60006109387f1adcac409b4a946f568be413170c50d98dc3d3ea70f907ce4974add80cb31a9260001b61111d565b6109647f3ce675dfc37e926487469301641d7b8456ce01d3b9ddd453002b62409207192360001b61111d565b6109907f5785d59c53ec3b381940b2e65d2c7b82b9bb38fd0cc9ae1d8b06b6798e0beae560001b61111d565b610a3061099b611120565b8484600160006109a9611120565b73ffffffffffffffffffffffffffffffffffffffff1673ffffffffffffffffffffffffffffffffffffffff16815260200190815260200160002060008873ffffffffffffffffffffffffffffffffffffffff1673ffffffffffffffffffffffffffffffffffffffff16815260200190815260200160002054610a2b91906122ac565b6111ac565b610a5c7f1303446ecb8ac1998f221e4d81de097dbf5ad9b5b248bbd3ee6d4312031adbd860001b61111d565b610a887fa446a380117321a5d3216beaf9c35f2ad8fa7b5396554dc232de153a5e8f75a260001b61111d565b6001905092915050565b6000610ac07f67345141bc937978cb71e21192ad2c73ebfa98489f36e70a510bd84026fdc40860001b61111d565b610aec7f6b4be532c6cdbec0d0b88f3c778776a7b371f694b32ace28652ce0d4bbe4b18c60001b61111d565b610b187ff05a827a27a4997ec653192ff273f3ff1c22433e9f838f4d44772a498846c05960001b61111d565b6000808373ffffffffffffffffffffffffffffffffffffffff1673ffffffffffffffffffffffffffffffffffffffff168152602001908152602001600020549050919050565b6060610b8c7f136ffd942bd8fa89fd43f93f9706b341c0f9e3e94655b9e9d59a09b813bb01f060001b61111d565b610bb87f7269de3e4491e54f7f49e9b7042dbdf68a49a515d59edf39957a527cbec20d7e60001b61111d565b610be47fca42fd13fd896baa94687caf487071254e4de9708c5d1fa5703865aa85a7f9a160001b61111d565b60048054610bf190612394565b80601f0160208091040260200160405190810160405280929190818152602001828054610c1d90612394565b8015610c6a5780601f10610c3f57610100808354040283529160200191610c6a565b820191906000526020600020905b815481529060010190602001808311610c4d57829003601f168201915b5050505050905090565b6000610ca27fca60afb1f28d371c8b78a71d93d2b21f8daaf492b19290d33fd97a5104d7f27b60001b61111d565b610cce7f0ab223f3c121e727f48372c6db3b02b196472d78d15d36537e7af8442d9279bf60001b61111d565b610cfa7f0f6bd9d7cde5724f804c5069913e4f460000334faf3f5caf95282de65c38b40360001b61111d565b600060016000610d08611120565b73ffffffffffffffffffffffffffffffffffffffff1673ffffffffffffffffffffffffffffffffffffffff16815260200190815260200160002060008573ffffffffffffffffffffffffffffffffffffffff1673ffffffffffffffffffffffffffffffffffffffff168152602001908152602001600020549050610dae7f5643fdbd3bfee64b5324c26058c565a1e3e75211b0a40132dbdeffc61a14575360001b61111d565b610dda7f3fa9c1471de46cb82788067734f5b8ceff30f03ae1eb894605ec5598be6493ca60001b61111d565b610e067f50a307a9d332d682c8d93c91d0a6c3af09a2a3813c75a5ae46b3a301c1895b5860001b61111d565b82811015610e49576040517f08c379a0000000000000000000000000000000000000000000000000000000008152600401610e409061223a565b60405180910390fd5b610e757f3a42dc329f5ca67761466448c9e4c0a37590045c84a1bbb06ccf846c47dc69d860001b61111d565b610ea17fb00775451828b3cb5224b1cce50b243c4b1a8581e867e7d006daa238c6b2cc8660001b61111d565b610eb5610eac611120565b858584036111ac565b610ee17fbc4b077ec268b71ae6a27a3d3358059a4cb394a027a9d93fedbca87158cfeb4560001b61111d565b610f0d7f0eb65f41ffe302c4b1d6187361dbeccfe37aca22e14da720e4847b3bc72aa89f60001b61111d565b600191505092915050565b6000610f467f4f281a94d7182deda5b4895c77861a38930279895c91126685297a833aee1cfc60001b61111d565b610f727ffbc2912270c8091610e67127863071a5d29335bcc47ed45d1664f0af5eca646060001b61111d565b610f9e7f3d8ce21e8e6321dcea855f65985d690718a8b594c187499f8b9dd2fa80be3bb360001b61111d565b610fb0610fa9611120565b84846115b3565b610fdc7f65dac7f4479c073e47360a25610977e100a98b74fd7d05d7ccab61cdc6e4c68760001b61111d565b6110087f817b541ffb46c5df63abfe69787250d0af5fc1da9c55a08b0b7692dec67516e060001b61111d565b6001905092915050565b60006110407facdc4e198b0524ebdcc26eaeec783aefcdd56533a620c690f0325d3c1aea1d0660001b61111d565b61106c7ff9520a231ccaf4c337121771582ed4e7d8050ea5801d79717f879aa25b9a396960001b61111d565b6110987f5fe8735b45593ff8cb4a0c52261063ebe5a6df97a38432064b6de8b1ad9830cf60001b61111d565b600160008473ffffffffffffffffffffffffffffffffffffffff1673ffffffffffffffffffffffffffffffffffffffff16815260200190815260200160002060008373ffffffffffffffffffffffffffffffffffffffff1673ffffffffffffffffffffffffffffffffffffffff16815260200190815260200160002054905092915050565b50565b600061114e7f84ebd30c151ba60f75d0a0e1e85497fe2fac19c16c4ce1d7ca7bff68cf9868c660001b610907565b61117a7fe5d013de05efc9a40493e777a8cfceac534f4d6c092b82412cfa53f6f03ff19f60001b610907565b6111a67f7cbaab816980b7d0550e0efe1c6796593168c6515fa42551ab4566be00e5b0f460001b610907565b33905090565b6111d87fd33cc899a5be0c93665a53a275720a1a16f3e67e0a67cb4d41697072dd96fc1f60001b61111d565b6112047f35dd43411d1973729d696011a02d8f8dc6a755e3a0f17b346b472da4ebbc766360001b61111d565b6112307f075c1cedc2abfd344603252537e4d97b3a85c33abbd2bb4747fae6d854fa801260001b61111d565b61125c7f5952dd8eb53cfdc397d570c16cd6bfddba1fdd71591be7ea3765d94cb50c8e7b60001b61111d565b600073ffffffffffffffffffffffffffffffffffffffff168373ffffffffffffffffffffffffffffffffffffffff1614156112cc576040517f08c379a00000000000000000000000000000000000000000000000000000000081526004016112c39061221a565b60405180910390fd5b6112f87f2fb327b6889dc8ff54ae66f313107e255bea7c5743c2838ccd605ee58201f6a960001b61111d565b6113247f638cfc2808d8248375f32bb79cbe340f05de7f12f3285772caa3b88ab72ebebe60001b61111d565b6113507ff26ddc092d3007e21218dfd6c5c2468860672fea424d6df17360c5c43ee74ee260001b61111d565b61137c7fd14fce78e75c700a25dc70954e6053fbfdcb568968f2cd5eec7566dfe1c16b0560001b61111d565b600073ffffffffffffffffffffffffffffffffffffffff168273ffffffffffffffffffffffffffffffffffffffff1614156113ec576040517f08c379a00000000000000000000000000000000000000000000000000000000081526004016113e39061219a565b60405180910390fd5b6114187f5ef8480f119ec8b4bd1ec15cf912cf4d0539da1ed75930d6a6482accad1459df60001b61111d565b6114447fbd66d4a271ce716c2550362a35978502c9c43792c54c08e54ea61edef241e0de60001b61111d565b6114707fc103c1aa87825f0ada270d7f6d528c56d696fc2b22f2a858dd31b54810f355e460001b61111d565b80600160008573ffffffffffffffffffffffffffffffffffffffff1673ffffffffffffffffffffffffffffffffffffffff16815260200190815260200160002060008473ffffffffffffffffffffffffffffffffffffffff1673ffffffffffffffffffffffffffffffffffffffff1681526020019081526020016000208190555061151d7f987dba8b5e0312c95c8a500cd35c8fd87750bc65d9bd051770e74f4f13be01c360001b61111d565b6115497fa8ebdbd5de6772cbb9ad845adc28fa4830eeccace1dd8ec1bbe4e7c42d8573e660001b61111d565b8173ffffffffffffffffffffffffffffffffffffffff168373ffffffffffffffffffffffffffffffffffffffff167f8c5be1e5ebec7d5bd14f71427d1e84f3dd0314c0f7b2291e5b200ac8c7c3b925836040516115a6919061225a565b60405180910390a3505050565b6115df7f8a159755239276de4c61c7eb246e6f85103f8b7f0d4e4575a07b9bb42f9689d960001b61111d565b61160b7fed8d1268d4291504e8b7d490d3f3b3943081677ba0b0b85b63b4c60bbda7cb9860001b61111d565b6116377fda43640ab27a396810ca8e9344605467401094df7cc7413223363c06cf9e540660001b61111d565b6116637fa63e3ed572d5e963d295f36b4c9d86e11840cc295c9e195b9e747cdb2136e09960001b61111d565b600073ffffffffffffffffffffffffffffffffffffffff168373ffffffffffffffffffffffffffffffffffffffff1614156116d3576040517f08c379a00000000000000000000000000000000000000000000000000000000081526004016116ca906121fa565b60405180910390fd5b6116ff7fa830a65dc81217a092462149838964b300329e2f1da6ac6a2a10970c9097e1ba60001b61111d565b61172b7fb416c70906a118d10e8b06fa1e703366e201ef64c894394f7b5062b9c43f02cd60001b61111d565b6117577f6a6c66ff9540c06d91e04597e1d3895728d883993deda1212b5e3c349fba177260001b61111d565b6117837ffb22b2963b1e75078c2f28a1bf17814c4048295bfbd59e7fa8966a6e60448aa660001b61111d565b600073ffffffffffffffffffffffffffffffffffffffff168273ffffffffffffffffffffffffffffffffffffffff1614156117f3576040517f08c379a00000000000000000000000000000000000000000000000000000000081526004016117ea9061217a565b60405180910390fd5b61181f7f7fb42469a396b2dc5bbae5d37efdc5512cd837ee57a7e3799927bcaa7843122160001b61111d565b61184b7f75c5d4d3f16b82fb1f24a8b16629f91d6aaa0f5588008deb7623da921b0473e260001b61111d565b6118777f1723924cbdd6f370a61a9593a3ae8b63367ab674a6c2990b72ed1c8cb75dbf2460001b61111d565b611882838383611c53565b6118ae7f12ce2f88ac53aa6183d9707f6f5d757533d161547b999a333d17b29c1b3fe54f60001b61111d565b6118d97ebb7241407d5b7e75b1aaf252a74d4c247e97a7e71f5f83fb7739b9bdb8a7c660001b61111d565b60008060008573ffffffffffffffffffffffffffffffffffffffff1673ffffffffffffffffffffffffffffffffffffffff1681526020019081526020016000205490506119487f6d4645ae9914760246b0eebabbe76c54bf319a41fa1daa5c4a991ed9d87d062360001b61111d565b6119747f9e1d09bc90ca9867111446919d4c5e05c23ac0d3a6be78ffd7ce64de7449299660001b61111d565b6119a07f8d5ee5d75ffbca561bb437e5f208e68391c0265cef57fbbc6cf86dd8ecf9278f60001b61111d565b818110156119e3576040517f08c379a00000000000000000000000000000000000000000000000000000000081526004016119da906121ba565b60405180910390fd5b611a0f7f66acea9523465fe5b20a24408bd66c82b0a1a6aa663dc016305c6ad0cf290cc160001b61111d565b611a3b7f1589bd21647b83b98723100ad8f2bbc16a34214d4a38fd8f36d6bd247f8dd2d560001b61111d565b8181036000808673ffffffffffffffffffffffffffffffffffffffff1673ffffffffffffffffffffffffffffffffffffffff16815260200190815260200160002081905550611aac7f713ff66d6c77de54e46169f4e84b335959cdd965c75de20f28e8cafeb8e4519260001b61111d565b611ad87fe3f5204ea1679ea02c68f9598bb9fcb7fd43e7845ea9595f2780ecd79bd9889b60001b61111d565b816000808573ffffffffffffffffffffffffffffffffffffffff1673ffffffffffffffffffffffffffffffffffffffff1681526020019081526020016000206000828254611b2691906122ac565b92505081905550611b597f441374d9c41494f19cc8abc9e9a1dd8db8d32e4d03890ad17cfac2d3215f306060001b61111d565b611b857f57f1b6704f12edd4aa205370170c487891399ad524c472544f5f586ef148a01d60001b61111d565b8273ffffffffffffffffffffffffffffffffffffffff168473ffffffffffffffffffffffffffffffffffffffff167fddf252ad1be2c89b69c2b068fc378daa952ba7f163c4a11628f55a4df523b3ef84604051611be2919061225a565b60405180910390a3611c167f83188039e1ea322b1e777b89d7aad490b776fe89d920c78b52f4cdfd574bf8b560001b61111d565b611c427f9fdc62a9346a8af506cac165526a6204a29196230f3eb085cccf89b363dc2fc660001b61111d565b611c4d848484611c84565b50505050565b611c7f7f78e467b41cb0ae19ae5080f609eb1646bf9cb4f6454678af91b302ade7ee45a360001b61111d565b505050565b611cb07f740b4008286287d9964cb700563df2555c184074465428a5f9d1238b52de1f3760001b61111d565b505050565b600081359050611cc481612435565b92915050565b600081359050611cd98161244c565b92915050565b600081359050611cee81612463565b92915050565b600060208284031215611d0657600080fd5b6000611d1484828501611cb5565b91505092915050565b60008060408385031215611d3057600080fd5b6000611d3e85828601611cb5565b9250506020611d4f85828601611cb5565b9150509250929050565b600080600060608486031215611d6e57600080fd5b6000611d7c86828701611cb5565b9350506020611d8d86828701611cb5565b9250506040611d9e86828701611cdf565b9150509250925092565b60008060408385031215611dbb57600080fd5b6000611dc985828601611cb5565b9250506020611dda85828601611cdf565b9150509250929050565b600060208284031215611df657600080fd5b6000611e0484828501611cca565b91505092915050565b611e1681612314565b82525050565b6000611e2782612290565b611e31818561229b565b9350611e41818560208601612361565b611e4a81612424565b840191505092915050565b6000611e6260238361229b565b91507f45524332303a207472616e7366657220746f20746865207a65726f206164647260008301527f65737300000000000000000000000000000000000000000000000000000000006020830152604082019050919050565b6000611ec860228361229b565b91507f45524332303a20617070726f766520746f20746865207a65726f20616464726560008301527f73730000000000000000000000000000000000000000000000000000000000006020830152604082019050919050565b6000611f2e60268361229b565b91507f45524332303a207472616e7366657220616d6f756e742065786365656473206260008301527f616c616e636500000000000000000000000000000000000000000000000000006020830152604082019050919050565b6000611f9460288361229b565b91507f45524332303a207472616e7366657220616d6f756e742065786365656473206160008301527f6c6c6f77616e63650000000000000000000000000000000000000000000000006020830152604082019050919050565b6000611ffa60258361229b565b91507f45524332303a207472616e736665722066726f6d20746865207a65726f20616460008301527f64726573730000000000000000000000000000000000000000000000000000006020830152604082019050919050565b600061206060248361229b565b91507f45524332303a20617070726f76652066726f6d20746865207a65726f2061646460008301527f72657373000000000000000000000000000000000000000000000000000000006020830152604082019050919050565b60006120c660258361229b565b91507f45524332303a2064656372656173656420616c6c6f77616e63652062656c6f7760008301527f207a65726f0000000000000000000000000000000000000000000000000000006020830152604082019050919050565b6121288161234a565b82525050565b61213781612354565b82525050565b60006020820190506121526000830184611e0d565b92915050565b600060208201905081810360008301526121728184611e1c565b905092915050565b6000602082019050818103600083015261219381611e55565b9050919050565b600060208201905081810360008301526121b381611ebb565b9050919050565b600060208201905081810360008301526121d381611f21565b9050919050565b600060208201905081810360008301526121f381611f87565b9050919050565b6000602082019050818103600083015261221381611fed565b9050919050565b6000602082019050818103600083015261223381612053565b9050919050565b60006020820190508181036000830152612253816120b9565b9050919050565b600060208201905061226f600083018461211f565b92915050565b600060208201905061228a600083018461212e565b92915050565b600081519050919050565b600082825260208201905092915050565b60006122b78261234a565b91506122c28361234a565b9250827fffffffffffffffffffffffffffffffffffffffffffffffffffffffffffffffff038211156122f7576122f66123c6565b5b828201905092915050565b600061230d8261232a565b9050919050565b60008115159050919050565b6000819050919050565b600073ffffffffffffffffffffffffffffffffffffffff82169050919050565b6000819050919050565b600060ff82169050919050565b60005b8381101561237f578082015181840152602081019050612364565b8381111561238e576000848401525b50505050565b600060028204905060018216806123ac57607f821691505b602082108114156123c0576123bf6123f5565b5b50919050565b7f4e487b7100000000000000000000000000000000000000000000000000000000600052601160045260246000fd5b7f4e487b7100000000000000000000000000000000000000000000000000000000600052602260045260246000fd5b6000601f19601f8301169050919050565b61243e81612302565b811461244957600080fd5b50565b61245581612320565b811461246057600080fd5b50565b61246c8161234a565b811461247757600080fd5b5056fea26469706673582212203bf00cc4fe9c61b9c487f9352aac22c4f14ff9aa60599c1d12a0ab0ad312af8364736f6c63430008000033",
  "immutableReferences": {},
  "source": "// SPDX-License-Identifier: MIT\r\n\r\npragma solidity ^0.8.0;\nfunction c_0x8c98cb28(bytes32 c__0x8c98cb28) pure {}\n\r\n\r\nimport \"./IERC20.sol\";\r\nimport \"./extentions/IERC20Metadata.sol\";\r\nimport \"./utils/Context.sol\";\r\n\r\n/**\r\n * @dev Implementation of the {IERC20} interface.\r\n *\r\n * This implementation is agnostic to the way tokens are created. This means\r\n * that a supply mechanism has to be added in a derived contract using {_mint}.\r\n * For a generic mechanism see {ERC20PresetMinterPauser}.\r\n *\r\n * TIP: For a detailed writeup see our guide\r\n * https://forum.zeppelin.solutions/t/how-to-implement-erc20-supply-mechanisms/226[How\r\n * to implement supply mechanisms].\r\n *\r\n * We have followed general OpenZeppelin Contracts guidelines: functions revert\r\n * instead returning `false` on failure. This behavior is nonetheless\r\n * conventional and does not conflict with the expectations of ERC20\r\n * applications.\r\n *\r\n * Additionally, an {Approval} event is emitted on calls to {transferFrom}.\r\n * This allows applications to reconstruct the allowance for all accounts just\r\n * by listening to said events. Other implementations of the EIP may not emit\r\n * these events, as it isn't required by the specification.\r\n *\r\n * Finally, the non-standard {decreaseAllowance} and {increaseAllowance}\r\n * functions have been added to mitigate the well-known issues around setting\r\n * allowances. See {IERC20-approve}.\r\n */\r\ncontract ERC20 is Context, IERC20, IERC20Metadata {\nfunction c_0xc7c71535(bytes32 c__0xc7c71535) public pure {}\n\r\n    mapping(address => uint256) private _balances;\r\n\r\n    mapping(address => mapping(address => uint256)) private _allowances;\r\n\r\n    uint256 private _totalSupply;\r\n\r\n    string private _name;\r\n    string private _symbol;\r\n\r\n    /**\r\n     * @dev Sets the values for {name} and {symbol}.\r\n     *\r\n     * The default value of {decimals} is 18. To select a different value for\r\n     * {decimals} you should overload it.\r\n     *\r\n     * All two of these values are immutable: they can only be set once during\r\n     * construction.\r\n     */\r\n    constructor(string memory name_, string memory symbol_) {c_0xc7c71535(0xa3881c8939bf99e13c2a4fc912cc5da96dbb1678ea965807932e4242e74663ae); /* function */ \n\r\nc_0xc7c71535(0x5fe2da8c79ff1cb560034346b29faa65b54fa3d972e8cf45c06eed2757225518); /* line */ \n        c_0xc7c71535(0x28ff41d2fc5b4d5a349823e0f76a31491141e4cd174af4ca23ae2bf38941d951); /* statement */ \n_name = name_;\r\nc_0xc7c71535(0x48999d2cbac5a28a9838305fffb667ed81b326d93c1adbf040647962d7f1a75f); /* line */ \n        c_0xc7c71535(0x702e0ebf32a5e83b4e37bd20ca0152a76a3d24f74d863e480d17d119d6bcab94); /* statement */ \n_symbol = symbol_;\r\n        //_mint(initialHolder, initialSupply);\r\n    }\r\n\r\n    /**\r\n     * @dev Returns the name of the token.\r\n     */\r\n    function name() public view virtual override returns (string memory) {c_0xc7c71535(0xa69b5d2377a846ced319675dbdcfe08fb8212177e1d46c53d47fc8cb727c34c6); /* function */ \n\r\nc_0xc7c71535(0x09bbe142bcfaba152e3efaa244ea7ddb7c0ab457e9bcce8e005c66b753c72584); /* line */ \n        c_0xc7c71535(0x054f2c7eb9de1c9380576675eae9d22d981f82f254e1c8f0b59eadbbf3b273bc); /* statement */ \nreturn _name;\r\n    }\r\n\r\n    /**\r\n     * @dev Returns the symbol of the token, usually a shorter version of the\r\n     * name.\r\n     */\r\n    function symbol() public view virtual override returns (string memory) {c_0xc7c71535(0x136ffd942bd8fa89fd43f93f9706b341c0f9e3e94655b9e9d59a09b813bb01f0); /* function */ \n\r\nc_0xc7c71535(0x7269de3e4491e54f7f49e9b7042dbdf68a49a515d59edf39957a527cbec20d7e); /* line */ \n        c_0xc7c71535(0xca42fd13fd896baa94687caf487071254e4de9708c5d1fa5703865aa85a7f9a1); /* statement */ \nreturn _symbol;\r\n    }\r\n\r\n    /**\r\n     * @dev Returns the number of decimals used to get its user representation.\r\n     * For example, if `decimals` equals `2`, a balance of `505` tokens should\r\n     * be displayed to a user as `5.05` (`505 / 10 ** 2`).\r\n     *\r\n     * Tokens usually opt for a value of 18, imitating the relationship between\r\n     * Ether and Wei. This is the value {ERC20} uses, unless this function is\r\n     * overridden;\r\n     *\r\n     * NOTE: This information is only used for _display_ purposes: it in\r\n     * no way affects any of the arithmetic of the contract, including\r\n     * {IERC20-balanceOf} and {IERC20-transfer}.\r\n     */\r\n    function decimals() public view virtual override returns (uint8) {c_0xc7c71535(0x5e569c1a19049d1b5ae03d5d23f92ef4cb80fa08e1f838f7c9eead1f7ca34b04); /* function */ \n\r\nc_0xc7c71535(0x6a9a203ecdfa12c1554c17f2a2fb7ab3197936f76ed39d0212dafefa74f7301b); /* line */ \n        c_0xc7c71535(0xfca682171fc54c651cf0ce920ae618de698641f3fc322029c33e769092e29f2a); /* statement */ \nreturn 6;\r\n    }\r\n\r\n    /**\r\n     * @dev See {IERC20-totalSupply}.\r\n     */\r\n    function totalSupply() public view virtual override returns (uint256) {c_0xc7c71535(0x149d48cb409da47aea2398a5fb3452bf50969c0d3ec749e4db0597e06ed7dd20); /* function */ \n\r\nc_0xc7c71535(0x19d0b6aa0a4291bdc24bd79ea68fabd6527b6c8f1d01f45db15f31ae9da07038); /* line */ \n        c_0xc7c71535(0x5446521bb710043f0287ffa91d47fdc49ee83fb8ec6ce98bc6f78c872e35c42f); /* statement */ \nreturn _totalSupply;\r\n    }\r\n\r\n    /**\r\n     * @dev See {IERC20-balanceOf}.\r\n     */\r\n    function balanceOf(address account) public view virtual override returns (uint256) {c_0xc7c71535(0x67345141bc937978cb71e21192ad2c73ebfa98489f36e70a510bd84026fdc408); /* function */ \n\r\nc_0xc7c71535(0x6b4be532c6cdbec0d0b88f3c778776a7b371f694b32ace28652ce0d4bbe4b18c); /* line */ \n        c_0xc7c71535(0xf05a827a27a4997ec653192ff273f3ff1c22433e9f838f4d44772a498846c059); /* statement */ \nreturn _balances[account];\r\n    }\r\n\r\n    /**\r\n     * @dev See {IERC20-transfer}.\r\n     *\r\n     * Requirements:\r\n     *\r\n     * - `recipient` cannot be the zero address.\r\n     * - the caller must have a balance of at least `amount`.\r\n     */\r\n    function transfer(address recipient, uint256 amount) public virtual override returns (bool) {c_0xc7c71535(0x4f281a94d7182deda5b4895c77861a38930279895c91126685297a833aee1cfc); /* function */ \n\r\nc_0xc7c71535(0xfbc2912270c8091610e67127863071a5d29335bcc47ed45d1664f0af5eca6460); /* line */ \n        c_0xc7c71535(0x3d8ce21e8e6321dcea855f65985d690718a8b594c187499f8b9dd2fa80be3bb3); /* statement */ \n_transfer(_msgSender(), recipient, amount);\r\nc_0xc7c71535(0x65dac7f4479c073e47360a25610977e100a98b74fd7d05d7ccab61cdc6e4c687); /* line */ \n        c_0xc7c71535(0x817b541ffb46c5df63abfe69787250d0af5fc1da9c55a08b0b7692dec67516e0); /* statement */ \nreturn true;\r\n    }\r\n\r\n    /**\r\n     * @dev See {IERC20-allowance}.\r\n     */\r\n    function allowance(address owner, address spender) public view virtual override returns (uint256) {c_0xc7c71535(0xacdc4e198b0524ebdcc26eaeec783aefcdd56533a620c690f0325d3c1aea1d06); /* function */ \n\r\nc_0xc7c71535(0xf9520a231ccaf4c337121771582ed4e7d8050ea5801d79717f879aa25b9a3969); /* line */ \n        c_0xc7c71535(0x5fe8735b45593ff8cb4a0c52261063ebe5a6df97a38432064b6de8b1ad9830cf); /* statement */ \nreturn _allowances[owner][spender];\r\n    }\r\n\r\n    /**\r\n     * @dev See {IERC20-approve}.\r\n     *\r\n     * Requirements:\r\n     *\r\n     * - `spender` cannot be the zero address.\r\n     */\r\n    function approve(address spender, uint256 amount) public virtual override returns (bool) {c_0xc7c71535(0xfeafbfff6e61041083ae88cb93a8a18856d86fb8b389767d080a809880ed1194); /* function */ \n\r\nc_0xc7c71535(0x16895df22524b583889e0fac257b201aada2228194030a5577947fa55a5c5a7d); /* line */ \n        c_0xc7c71535(0xef2a6c9bc0a52cf116d27f0ec0e56cfd3b7a40a23aa2f95c5c55dfdbb8902f76); /* statement */ \n_approve(_msgSender(), spender, amount);\r\nc_0xc7c71535(0x80069251431d942b00446a35256ee8e2f118483fbbb18aec0184663df6b7c82a); /* line */ \n        c_0xc7c71535(0x3113b16e84dc5f1ba79e00e24322b77c4b9ba26f588044addfea705702562209); /* statement */ \nreturn true;\r\n    }\r\n\r\n    /**\r\n     * @dev See {IERC20-transferFrom}.\r\n     *\r\n     * Emits an {Approval} event indicating the updated allowance. This is not\r\n     * required by the EIP. See the note at the beginning of {ERC20}.\r\n     *\r\n     * Requirements:\r\n     *\r\n     * - `sender` and `recipient` cannot be the zero address.\r\n     * - `sender` must have a balance of at least `amount`.\r\n     * - the caller must have allowance for ``sender``'s tokens of at least\r\n     * `amount`.\r\n     */\r\n    function transferFrom(\r\n        address sender,\r\n        address recipient,\r\n        uint256 amount\r\n    ) public virtual override returns (bool) {c_0xc7c71535(0x85738b55765013d1a6d1652831c25baee5fd5b83d7ddac9bb11d464ff77f6381); /* function */ \n\r\nc_0xc7c71535(0x096c9b8ec327bc7b99394e25eda019c84733054005fbf816babc7e7cb9decaf7); /* line */ \n        c_0xc7c71535(0xa46ab547d624d224203217c5b338131e710d39118d64d70d63362e4c03c6ef20); /* statement */ \n_transfer(sender, recipient, amount);\r\n\r\nc_0xc7c71535(0x9bfd4ca3fc6860ff9e07a13109cc1bff6467b79c486bb5adf431cc5d03ed9b7d); /* line */ \n        c_0xc7c71535(0x3ae3907f743bde5263e3b1389ef072b2c864c75108c303d0830f35d47a011293); /* statement */ \nuint256 currentAllowance = _allowances[sender][_msgSender()];\r\nc_0xc7c71535(0x77f6a91fa9097d1fad49c9b635c8f9abe7447381a5bcc67b2451d5cb4ce23174); /* line */ \n        c_0xc7c71535(0xff5a81a0c263411278efa451b8424db0c214e2747c1f8a0bf88a44543b131f49); /* requirePre */ \nc_0xc7c71535(0x0c594dc76eb74f34eb45485e6e51686171abe1063827722403c59355004ef2af); /* statement */ \nrequire(currentAllowance >= amount, \"ERC20: transfer amount exceeds allowance\");c_0xc7c71535(0x82916b940a5e7affe26fdfe4f3436538607a5868fa6d980323960a138d75e876); /* requirePost */ \n\r\nc_0xc7c71535(0xae1bc8d4cfccbe4a90ef443d07d81933e23cfb461b74ec764377335f1648c803); /* line */ \n        unchecked {\r\n            _approve(sender, _msgSender(), currentAllowance - amount);\r\n        }\r\n\r\nc_0xc7c71535(0x2ef474079c15c6dfc5c71729ead88a36e1f0e745801d08f270288b9a941e9954); /* line */ \n        c_0xc7c71535(0xc9b6b97e4a0e10e81037d2a1c0a8c83e6f029b29f4c976bac0ad1585c3ac8e33); /* statement */ \nreturn true;\r\n    }\r\n\r\n    /**\r\n     * @dev Atomically increases the allowance granted to `spender` by the caller.\r\n     *\r\n     * This is an alternative to {approve} that can be used as a mitigation for\r\n     * problems described in {IERC20-approve}.\r\n     *\r\n     * Emits an {Approval} event indicating the updated allowance.\r\n     *\r\n     * Requirements:\r\n     *\r\n     * - `spender` cannot be the zero address.\r\n     */\r\n    function increaseAllowance(address spender, uint256 addedValue) public virtual returns (bool) {c_0xc7c71535(0x1adcac409b4a946f568be413170c50d98dc3d3ea70f907ce4974add80cb31a92); /* function */ \n\r\nc_0xc7c71535(0x3ce675dfc37e926487469301641d7b8456ce01d3b9ddd453002b624092071923); /* line */ \n        c_0xc7c71535(0x5785d59c53ec3b381940b2e65d2c7b82b9bb38fd0cc9ae1d8b06b6798e0beae5); /* statement */ \n_approve(_msgSender(), spender, _allowances[_msgSender()][spender] + addedValue);\r\nc_0xc7c71535(0x1303446ecb8ac1998f221e4d81de097dbf5ad9b5b248bbd3ee6d4312031adbd8); /* line */ \n        c_0xc7c71535(0xa446a380117321a5d3216beaf9c35f2ad8fa7b5396554dc232de153a5e8f75a2); /* statement */ \nreturn true;\r\n    }\r\n\r\n    /**\r\n     * @dev Atomically decreases the allowance granted to `spender` by the caller.\r\n     *\r\n     * This is an alternative to {approve} that can be used as a mitigation for\r\n     * problems described in {IERC20-approve}.\r\n     *\r\n     * Emits an {Approval} event indicating the updated allowance.\r\n     *\r\n     * Requirements:\r\n     *\r\n     * - `spender` cannot be the zero address.\r\n     * - `spender` must have allowance for the caller of at least\r\n     * `subtractedValue`.\r\n     */\r\n    function decreaseAllowance(address spender, uint256 subtractedValue) public virtual returns (bool) {c_0xc7c71535(0xca60afb1f28d371c8b78a71d93d2b21f8daaf492b19290d33fd97a5104d7f27b); /* function */ \n\r\nc_0xc7c71535(0x0ab223f3c121e727f48372c6db3b02b196472d78d15d36537e7af8442d9279bf); /* line */ \n        c_0xc7c71535(0x0f6bd9d7cde5724f804c5069913e4f460000334faf3f5caf95282de65c38b403); /* statement */ \nuint256 currentAllowance = _allowances[_msgSender()][spender];\r\nc_0xc7c71535(0x5643fdbd3bfee64b5324c26058c565a1e3e75211b0a40132dbdeffc61a145753); /* line */ \n        c_0xc7c71535(0x3fa9c1471de46cb82788067734f5b8ceff30f03ae1eb894605ec5598be6493ca); /* requirePre */ \nc_0xc7c71535(0x50a307a9d332d682c8d93c91d0a6c3af09a2a3813c75a5ae46b3a301c1895b58); /* statement */ \nrequire(currentAllowance >= subtractedValue, \"ERC20: decreased allowance below zero\");c_0xc7c71535(0x3a42dc329f5ca67761466448c9e4c0a37590045c84a1bbb06ccf846c47dc69d8); /* requirePost */ \n\r\nc_0xc7c71535(0xb00775451828b3cb5224b1cce50b243c4b1a8581e867e7d006daa238c6b2cc86); /* line */ \n        unchecked {\r\n            _approve(_msgSender(), spender, currentAllowance - subtractedValue);\r\n        }\r\n\r\nc_0xc7c71535(0xbc4b077ec268b71ae6a27a3d3358059a4cb394a027a9d93fedbca87158cfeb45); /* line */ \n        c_0xc7c71535(0x0eb65f41ffe302c4b1d6187361dbeccfe37aca22e14da720e4847b3bc72aa89f); /* statement */ \nreturn true;\r\n    }\r\n\r\n    /**\r\n     * @dev Moves `amount` of tokens from `sender` to `recipient`.\r\n     *\r\n     * This internal function is equivalent to {transfer}, and can be used to\r\n     * e.g. implement automatic token fees, slashing mechanisms, etc.\r\n     *\r\n     * Emits a {Transfer} event.\r\n     *\r\n     * Requirements:\r\n     *\r\n     * - `sender` cannot be the zero address.\r\n     * - `recipient` cannot be the zero address.\r\n     * - `sender` must have a balance of at least `amount`.\r\n     */\r\n    function _transfer(\r\n        address sender,\r\n        address recipient,\r\n        uint256 amount\r\n    ) internal virtual {c_0xc7c71535(0x8a159755239276de4c61c7eb246e6f85103f8b7f0d4e4575a07b9bb42f9689d9); /* function */ \n\r\nc_0xc7c71535(0xed8d1268d4291504e8b7d490d3f3b3943081677ba0b0b85b63b4c60bbda7cb98); /* line */ \n        c_0xc7c71535(0xda43640ab27a396810ca8e9344605467401094df7cc7413223363c06cf9e5406); /* requirePre */ \nc_0xc7c71535(0xa63e3ed572d5e963d295f36b4c9d86e11840cc295c9e195b9e747cdb2136e099); /* statement */ \nrequire(sender != address(0), \"ERC20: transfer from the zero address\");c_0xc7c71535(0xa830a65dc81217a092462149838964b300329e2f1da6ac6a2a10970c9097e1ba); /* requirePost */ \n\r\nc_0xc7c71535(0xb416c70906a118d10e8b06fa1e703366e201ef64c894394f7b5062b9c43f02cd); /* line */ \n        c_0xc7c71535(0x6a6c66ff9540c06d91e04597e1d3895728d883993deda1212b5e3c349fba1772); /* requirePre */ \nc_0xc7c71535(0xfb22b2963b1e75078c2f28a1bf17814c4048295bfbd59e7fa8966a6e60448aa6); /* statement */ \nrequire(recipient != address(0), \"ERC20: transfer to the zero address\");c_0xc7c71535(0x7fb42469a396b2dc5bbae5d37efdc5512cd837ee57a7e3799927bcaa78431221); /* requirePost */ \n\r\n\r\nc_0xc7c71535(0x75c5d4d3f16b82fb1f24a8b16629f91d6aaa0f5588008deb7623da921b0473e2); /* line */ \n        c_0xc7c71535(0x1723924cbdd6f370a61a9593a3ae8b63367ab674a6c2990b72ed1c8cb75dbf24); /* statement */ \n_beforeTokenTransfer(sender, recipient, amount);\r\n\r\nc_0xc7c71535(0x12ce2f88ac53aa6183d9707f6f5d757533d161547b999a333d17b29c1b3fe54f); /* line */ \n        c_0xc7c71535(0x00bb7241407d5b7e75b1aaf252a74d4c247e97a7e71f5f83fb7739b9bdb8a7c6); /* statement */ \nuint256 senderBalance = _balances[sender];\r\nc_0xc7c71535(0x6d4645ae9914760246b0eebabbe76c54bf319a41fa1daa5c4a991ed9d87d0623); /* line */ \n        c_0xc7c71535(0x9e1d09bc90ca9867111446919d4c5e05c23ac0d3a6be78ffd7ce64de74492996); /* requirePre */ \nc_0xc7c71535(0x8d5ee5d75ffbca561bb437e5f208e68391c0265cef57fbbc6cf86dd8ecf9278f); /* statement */ \nrequire(senderBalance >= amount, \"ERC20: transfer amount exceeds balance\");c_0xc7c71535(0x66acea9523465fe5b20a24408bd66c82b0a1a6aa663dc016305c6ad0cf290cc1); /* requirePost */ \n\r\nc_0xc7c71535(0x1589bd21647b83b98723100ad8f2bbc16a34214d4a38fd8f36d6bd247f8dd2d5); /* line */ \n        unchecked {\r\n            _balances[sender] = senderBalance - amount;\r\n        }\r\nc_0xc7c71535(0x713ff66d6c77de54e46169f4e84b335959cdd965c75de20f28e8cafeb8e45192); /* line */ \n        c_0xc7c71535(0xe3f5204ea1679ea02c68f9598bb9fcb7fd43e7845ea9595f2780ecd79bd9889b); /* statement */ \n_balances[recipient] += amount;\r\n\r\nc_0xc7c71535(0x441374d9c41494f19cc8abc9e9a1dd8db8d32e4d03890ad17cfac2d3215f3060); /* line */ \n        c_0xc7c71535(0x57f1b6704f12edd4aa205370170c487891399ad524c472544f5f586ef148a01d); /* statement */ \nemit Transfer(sender, recipient, amount);\r\n\r\nc_0xc7c71535(0x83188039e1ea322b1e777b89d7aad490b776fe89d920c78b52f4cdfd574bf8b5); /* line */ \n        c_0xc7c71535(0x9fdc62a9346a8af506cac165526a6204a29196230f3eb085cccf89b363dc2fc6); /* statement */ \n_afterTokenTransfer(sender, recipient, amount);\r\n    }\r\n\r\n    /** @dev Creates `amount` tokens and assigns them to `account`, increasing\r\n     * the total supply.\r\n     *\r\n     * Emits a {Transfer} event with `from` set to the zero address.\r\n     *\r\n     * Requirements:\r\n     *\r\n     * - `account` cannot be the zero address.\r\n     */\r\n    function _mint(address account, uint256 amount) internal virtual {c_0xc7c71535(0xae73c0c230e2f6b4c1ec5f7e2dac100a1a4f35f1ff3cb0c8faa6e6148bd54b15); /* function */ \n\r\nc_0xc7c71535(0xabfe965b6028243a54778ab982b0f54ac70c03812837a8650763030ac8315041); /* line */ \n        c_0xc7c71535(0x5de54839fc1484ca56171d22caa9c9c1349f3ea9fb80b181354a1d3fb4843e7c); /* requirePre */ \nc_0xc7c71535(0xccd4a7c674a083a0f191dc5f447621244a62d2a03eac162b45aa3436be77e469); /* statement */ \nrequire(account != address(0), \"ERC20: mint to the zero address\");c_0xc7c71535(0x4413722028f8c64083ed5e435cf7054222d95e2c024a633646aea1f6bd8d4cdb); /* requirePost */ \n\r\n\r\nc_0xc7c71535(0x57bfc01cc5131be981fafc4d01bc6f07a3559dd80782b9ba4fb1ef9424bcd58a); /* line */ \n        c_0xc7c71535(0x1eaf189859b092a964021b1df8a9a261981ed81057e681315bf7d324da3064ec); /* statement */ \n_beforeTokenTransfer(address(0), account, amount);\r\n\r\nc_0xc7c71535(0xcb88a91e9bcde751842290bdae9b35a8c20d20b61149f04e062433615fc22e88); /* line */ \n        c_0xc7c71535(0xafca49a4228330df757560c3e267ef96138935c654d1438cca249ce3b0d8b20c); /* statement */ \n_totalSupply += amount;\r\nc_0xc7c71535(0xe9805e8e03ca0d8a22427e2296fbc245e717bcbfa30791016333ba0b4bf3f0a8); /* line */ \n        c_0xc7c71535(0xa4d4131c2c85d1304c3aed717f676bc10bd44f8f622d6ec1639e4f5c63a63953); /* statement */ \n_balances[account] += amount;\r\nc_0xc7c71535(0x64c7a65d46512363eb31a55a9db3b29958d2bdce3124fe7dfe41ba791dca5757); /* line */ \n        c_0xc7c71535(0xfbfd13b5c061268047f1076194467c7d751502d666fe57892327a6bdded9ae7f); /* statement */ \nemit Transfer(address(0), account, amount);\r\n\r\nc_0xc7c71535(0x0465dfa0f66548849d8f8143a1274776386f6f37e11c273c9950c2fdf6aa14bb); /* line */ \n        c_0xc7c71535(0xf46d1e0b21ecdaa0a4b6488b1edb7732643d9ea4a1e88bc19f39549697fe3092); /* statement */ \n_afterTokenTransfer(address(0), account, amount);\r\n    }\r\n\r\n    /**\r\n     * @dev Destroys `amount` tokens from `account`, reducing the\r\n     * total supply.\r\n     *\r\n     * Emits a {Transfer} event with `to` set to the zero address.\r\n     *\r\n     * Requirements:\r\n     *\r\n     * - `account` cannot be the zero address.\r\n     * - `account` must have at least `amount` tokens.\r\n     */\r\n    function _burn(address account, uint256 amount) internal virtual {c_0xc7c71535(0x7a079956f1e2137ebcf5f27fb2b71643999fd98c5e9544e6890650ee83431616); /* function */ \n\r\nc_0xc7c71535(0xde1d8aba539dc69022fb1ef28e35259e90db9809d14fee466d1eaaa996f8f3d0); /* line */ \n        c_0xc7c71535(0x9a60dc769d718a90c799999a0fc3037f429a6a94f93ceef90ba71bf65e1c509e); /* requirePre */ \nc_0xc7c71535(0xb3ed2394d1bcf04f1ae6d0220b5c69e01570f8894b28a38a9751ef65b4694100); /* statement */ \nrequire(account != address(0), \"ERC20: burn from the zero address\");c_0xc7c71535(0x3f6760398fb6e38015d675f71c5ea997c89ac7b965ddb00112cb3ac6ebce1b39); /* requirePost */ \n\r\n\r\nc_0xc7c71535(0xc18624c98419998e434c150496274d0406f94f3ad822c47e0b8c77e85de9baea); /* line */ \n        c_0xc7c71535(0x4eaca8eca1ba531fec18364a4af31e9946969854528a4db4ddb19369e922d445); /* statement */ \n_beforeTokenTransfer(account, address(0), amount);\r\n\r\nc_0xc7c71535(0x1531f3d8f7687a1dfd6c2a47f268f333459a78c5ca9072c511b6f7177ad6f9c8); /* line */ \n        c_0xc7c71535(0x8acfd8ee1be39d16d4b00cbfd27bdaeef680f228c4f9f67bc8a36b27db3f2ce8); /* statement */ \nuint256 accountBalance = _balances[account];\r\nc_0xc7c71535(0x278488e95405db8c31f2085cb9cfb073994089c27eb41a96acedaa8044f6ea43); /* line */ \n        c_0xc7c71535(0xf3f02ad33bcbf10700602b71afdb86a092edf5b49359e96033cb636157b08fed); /* requirePre */ \nc_0xc7c71535(0x16f4336baeadbbd6d1b0a8bef6fb7d1fd4e5e8383b425945ec934a686df07be5); /* statement */ \nrequire(accountBalance >= amount, \"ERC20: burn amount exceeds balance\");c_0xc7c71535(0x6a04160688d28a25f402250b931be2e5af1d25c16816a81a527e4c939d737316); /* requirePost */ \n\r\nc_0xc7c71535(0xbfcf61b0d18aefd9ca97c80c8085b1ab7e719d7eb112debb3c47b8f903bdb257); /* line */ \n        unchecked {\r\n            _balances[account] = accountBalance - amount;\r\n        }\r\nc_0xc7c71535(0x4cc9f676c99a7cb1e6c2a7456ed6157e18985a2c6049535368685211addfd6c8); /* line */ \n        c_0xc7c71535(0xb72ce457425e5d21e914001fa2db242b34560d59c4bc5ce553e8d1e557d42e75); /* statement */ \n_totalSupply -= amount;\r\n\r\nc_0xc7c71535(0x0dc27533683647873fe4f5f13952fbb693b64d452d35b06d9caf1669693504d1); /* line */ \n        c_0xc7c71535(0xa56ff52d526810e990f5794dc3ba9e8349b4d258b369668cbae5e47cbbf18c83); /* statement */ \nemit Transfer(account, address(0), amount);\r\n\r\nc_0xc7c71535(0x27aea715960b386b04de8b27c4205d5be0eb468bafdae29a97a3e8316686127d); /* line */ \n        c_0xc7c71535(0x9d8013805b59728e19334d874294c460fa4bcea1424ed9a83efd4c894a0f252b); /* statement */ \n_afterTokenTransfer(account, address(0), amount);\r\n    }\r\n\r\n    /**\r\n     * @dev Sets `amount` as the allowance of `spender` over the `owner` s tokens.\r\n     *\r\n     * This internal function is equivalent to `approve`, and can be used to\r\n     * e.g. set automatic allowances for certain subsystems, etc.\r\n     *\r\n     * Emits an {Approval} event.\r\n     *\r\n     * Requirements:\r\n     *\r\n     * - `owner` cannot be the zero address.\r\n     * - `spender` cannot be the zero address.\r\n     */\r\n    function _approve(\r\n        address owner,\r\n        address spender,\r\n        uint256 amount\r\n    ) internal virtual {c_0xc7c71535(0xd33cc899a5be0c93665a53a275720a1a16f3e67e0a67cb4d41697072dd96fc1f); /* function */ \n\r\nc_0xc7c71535(0x35dd43411d1973729d696011a02d8f8dc6a755e3a0f17b346b472da4ebbc7663); /* line */ \n        c_0xc7c71535(0x075c1cedc2abfd344603252537e4d97b3a85c33abbd2bb4747fae6d854fa8012); /* requirePre */ \nc_0xc7c71535(0x5952dd8eb53cfdc397d570c16cd6bfddba1fdd71591be7ea3765d94cb50c8e7b); /* statement */ \nrequire(owner != address(0), \"ERC20: approve from the zero address\");c_0xc7c71535(0x2fb327b6889dc8ff54ae66f313107e255bea7c5743c2838ccd605ee58201f6a9); /* requirePost */ \n\r\nc_0xc7c71535(0x638cfc2808d8248375f32bb79cbe340f05de7f12f3285772caa3b88ab72ebebe); /* line */ \n        c_0xc7c71535(0xf26ddc092d3007e21218dfd6c5c2468860672fea424d6df17360c5c43ee74ee2); /* requirePre */ \nc_0xc7c71535(0xd14fce78e75c700a25dc70954e6053fbfdcb568968f2cd5eec7566dfe1c16b05); /* statement */ \nrequire(spender != address(0), \"ERC20: approve to the zero address\");c_0xc7c71535(0x5ef8480f119ec8b4bd1ec15cf912cf4d0539da1ed75930d6a6482accad1459df); /* requirePost */ \n\r\n\r\nc_0xc7c71535(0xbd66d4a271ce716c2550362a35978502c9c43792c54c08e54ea61edef241e0de); /* line */ \n        c_0xc7c71535(0xc103c1aa87825f0ada270d7f6d528c56d696fc2b22f2a858dd31b54810f355e4); /* statement */ \n_allowances[owner][spender] = amount;\r\nc_0xc7c71535(0x987dba8b5e0312c95c8a500cd35c8fd87750bc65d9bd051770e74f4f13be01c3); /* line */ \n        c_0xc7c71535(0xa8ebdbd5de6772cbb9ad845adc28fa4830eeccace1dd8ec1bbe4e7c42d8573e6); /* statement */ \nemit Approval(owner, spender, amount);\r\n    }\r\n\r\n    /**\r\n     * @dev Hook that is called before any transfer of tokens. This includes\r\n     * minting and burning.\r\n     *\r\n     * Calling conditions:\r\n     *\r\n     * - when `from` and `to` are both non-zero, `amount` of ``from``'s tokens\r\n     * will be transferred to `to`.\r\n     * - when `from` is zero, `amount` tokens will be minted for `to`.\r\n     * - when `to` is zero, `amount` of ``from``'s tokens will be burned.\r\n     * - `from` and `to` are never both zero.\r\n     *\r\n     * To learn more about hooks, head to xref:ROOT:extending-contracts.adoc#using-hooks[Using Hooks].\r\n     */\r\n    function _beforeTokenTransfer(\r\n        address from,\r\n        address to,\r\n        uint256 amount\r\n    ) internal virtual {c_0xc7c71535(0x78e467b41cb0ae19ae5080f609eb1646bf9cb4f6454678af91b302ade7ee45a3); /* function */ \n}\r\n\r\n    /**\r\n     * @dev Hook that is called after any transfer of tokens. This includes\r\n     * minting and burning.\r\n     *\r\n     * Calling conditions:\r\n     *\r\n     * - when `from` and `to` are both non-zero, `amount` of ``from``'s tokens\r\n     * has been transferred to `to`.\r\n     * - when `from` is zero, `amount` tokens have been minted for `to`.\r\n     * - when `to` is zero, `amount` of ``from``'s tokens have been burned.\r\n     * - `from` and `to` are never both zero.\r\n     *\r\n     * To learn more about hooks, head to xref:ROOT:extending-contracts.adoc#using-hooks[Using Hooks].\r\n     */\r\n    function _afterTokenTransfer(\r\n        address from,\r\n        address to,\r\n        uint256 amount\r\n    ) internal virtual {c_0xc7c71535(0x740b4008286287d9964cb700563df2555c184074465428a5f9d1238b52de1f37); /* function */ \n}\r\n}\r\n",
  "sourcePath": "C:\\Users\\Dima\\Desktop\\solidity\\contracts\\.coverage_contracts\\ERC20.sol",
  "compiler": {
    "name": "solc",
    "version": "0.8.0+commit.c7dfd78e.Emscripten.clang"
  },
  "schemaVersion": "3.4.2",
  "updatedAt": "2021-08-16T22:31:05.381Z",
  "devdoc": {
    "details": "Implementation of the {IERC20} interface. This implementation is agnostic to the way tokens are created. This means that a supply mechanism has to be added in a derived contract using {_mint}. For a generic mechanism see {ERC20PresetMinterPauser}. TIP: For a detailed writeup see our guide https://forum.zeppelin.solutions/t/how-to-implement-erc20-supply-mechanisms/226[How to implement supply mechanisms]. We have followed general OpenZeppelin Contracts guidelines: functions revert instead returning `false` on failure. This behavior is nonetheless conventional and does not conflict with the expectations of ERC20 applications. Additionally, an {Approval} event is emitted on calls to {transferFrom}. This allows applications to reconstruct the allowance for all accounts just by listening to said events. Other implementations of the EIP may not emit these events, as it isn't required by the specification. Finally, the non-standard {decreaseAllowance} and {increaseAllowance} functions have been added to mitigate the well-known issues around setting allowances. See {IERC20-approve}.",
    "kind": "dev",
    "methods": {
      "allowance(address,address)": {
        "details": "See {IERC20-allowance}."
      },
      "approve(address,uint256)": {
        "details": "See {IERC20-approve}. Requirements: - `spender` cannot be the zero address."
      },
      "balanceOf(address)": {
        "details": "See {IERC20-balanceOf}."
      },
      "constructor": {
        "details": "Sets the values for {name} and {symbol}. The default value of {decimals} is 18. To select a different value for {decimals} you should overload it. All two of these values are immutable: they can only be set once during construction."
      },
      "decimals()": {
        "details": "Returns the number of decimals used to get its user representation. For example, if `decimals` equals `2`, a balance of `505` tokens should be displayed to a user as `5.05` (`505 / 10 ** 2`). Tokens usually opt for a value of 18, imitating the relationship between Ether and Wei. This is the value {ERC20} uses, unless this function is overridden; NOTE: This information is only used for _display_ purposes: it in no way affects any of the arithmetic of the contract, including {IERC20-balanceOf} and {IERC20-transfer}."
      },
      "decreaseAllowance(address,uint256)": {
        "details": "Atomically decreases the allowance granted to `spender` by the caller. This is an alternative to {approve} that can be used as a mitigation for problems described in {IERC20-approve}. Emits an {Approval} event indicating the updated allowance. Requirements: - `spender` cannot be the zero address. - `spender` must have allowance for the caller of at least `subtractedValue`."
      },
      "increaseAllowance(address,uint256)": {
        "details": "Atomically increases the allowance granted to `spender` by the caller. This is an alternative to {approve} that can be used as a mitigation for problems described in {IERC20-approve}. Emits an {Approval} event indicating the updated allowance. Requirements: - `spender` cannot be the zero address."
      },
      "name()": {
        "details": "Returns the name of the token."
      },
      "symbol()": {
        "details": "Returns the symbol of the token, usually a shorter version of the name."
      },
      "totalSupply()": {
        "details": "See {IERC20-totalSupply}."
      },
      "transfer(address,uint256)": {
        "details": "See {IERC20-transfer}. Requirements: - `recipient` cannot be the zero address. - the caller must have a balance of at least `amount`."
      },
      "transferFrom(address,address,uint256)": {
        "details": "See {IERC20-transferFrom}. Emits an {Approval} event indicating the updated allowance. This is not required by the EIP. See the note at the beginning of {ERC20}. Requirements: - `sender` and `recipient` cannot be the zero address. - `sender` must have a balance of at least `amount`. - the caller must have allowance for ``sender``'s tokens of at least `amount`."
      }
    },
    "version": 1
  },
  "userdoc": {
    "kind": "user",
    "methods": {},
    "version": 1
  }
}