{
  "contractName": "TZTokens",
  "abi": [
    {
      "inputs": [],
      "stateMutability": "nonpayable",
      "type": "constructor"
    },
    {
      "anonymous": false,
      "inputs": [
        {
          "indexed": true,
          "internalType": "address",
          "name": "owner",
          "type": "address"
        },
        {
          "indexed": true,
          "internalType": "address",
          "name": "spender",
          "type": "address"
        },
        {
          "indexed": false,
          "internalType": "uint256",
          "name": "value",
          "type": "uint256"
        }
      ],
      "name": "Approval",
      "type": "event"
    },
    {
      "anonymous": false,
      "inputs": [
        {
          "indexed": true,
          "internalType": "address",
          "name": "from",
          "type": "address"
        },
        {
          "indexed": true,
          "internalType": "address",
          "name": "to",
          "type": "address"
        },
        {
          "indexed": false,
          "internalType": "uint256",
          "name": "value",
          "type": "uint256"
        }
      ],
      "name": "Transfer",
      "type": "event"
    },
    {
      "inputs": [
        {
          "internalType": "address",
          "name": "owner",
          "type": "address"
        },
        {
          "internalType": "address",
          "name": "spender",
          "type": "address"
        }
      ],
      "name": "allowance",
      "outputs": [
        {
          "internalType": "uint256",
          "name": "",
          "type": "uint256"
        }
      ],
      "stateMutability": "view",
      "type": "function",
      "constant": true
    },
    {
      "inputs": [
        {
          "internalType": "address",
          "name": "spender",
          "type": "address"
        },
        {
          "internalType": "uint256",
          "name": "amount",
          "type": "uint256"
        }
      ],
      "name": "approve",
      "outputs": [
        {
          "internalType": "bool",
          "name": "",
          "type": "bool"
        }
      ],
      "stateMutability": "nonpayable",
      "type": "function"
    },
    {
      "inputs": [
        {
          "internalType": "address",
          "name": "account",
          "type": "address"
        }
      ],
      "name": "balanceOf",
      "outputs": [
        {
          "internalType": "uint256",
          "name": "",
          "type": "uint256"
        }
      ],
      "stateMutability": "view",
      "type": "function",
      "constant": true
    },
    {
      "inputs": [
        {
          "internalType": "bytes32",
          "name": "c__0xc7c71535",
          "type": "bytes32"
        }
      ],
      "name": "c_0xc7c71535",
      "outputs": [],
      "stateMutability": "pure",
      "type": "function",
      "constant": true
    },
    {
      "inputs": [
        {
          "internalType": "bytes32",
          "name": "c__0xdb6a53a0",
          "type": "bytes32"
        }
      ],
      "name": "c_0xdb6a53a0",
      "outputs": [],
      "stateMutability": "pure",
      "type": "function",
      "constant": true
    },
    {
      "inputs": [],
      "name": "decimals",
      "outputs": [
        {
          "internalType": "uint8",
          "name": "",
          "type": "uint8"
        }
      ],
      "stateMutability": "view",
      "type": "function",
      "constant": true
    },
    {
      "inputs": [
        {
          "internalType": "address",
          "name": "spender",
          "type": "address"
        },
        {
          "internalType": "uint256",
          "name": "subtractedValue",
          "type": "uint256"
        }
      ],
      "name": "decreaseAllowance",
      "outputs": [
        {
          "internalType": "bool",
          "name": "",
          "type": "bool"
        }
      ],
      "stateMutability": "nonpayable",
      "type": "function"
    },
    {
      "inputs": [
        {
          "internalType": "address",
          "name": "spender",
          "type": "address"
        },
        {
          "internalType": "uint256",
          "name": "addedValue",
          "type": "uint256"
        }
      ],
      "name": "increaseAllowance",
      "outputs": [
        {
          "internalType": "bool",
          "name": "",
          "type": "bool"
        }
      ],
      "stateMutability": "nonpayable",
      "type": "function"
    },
    {
      "inputs": [],
      "name": "name",
      "outputs": [
        {
          "internalType": "string",
          "name": "",
          "type": "string"
        }
      ],
      "stateMutability": "view",
      "type": "function",
      "constant": true
    },
    {
      "inputs": [],
      "name": "symbol",
      "outputs": [
        {
          "internalType": "string",
          "name": "",
          "type": "string"
        }
      ],
      "stateMutability": "view",
      "type": "function",
      "constant": true
    },
    {
      "inputs": [],
      "name": "totalSupply",
      "outputs": [
        {
          "internalType": "uint256",
          "name": "",
          "type": "uint256"
        }
      ],
      "stateMutability": "view",
      "type": "function",
      "constant": true
    },
    {
      "inputs": [
        {
          "internalType": "address",
          "name": "recipient",
          "type": "address"
        },
        {
          "internalType": "uint256",
          "name": "amount",
          "type": "uint256"
        }
      ],
      "name": "transfer",
      "outputs": [
        {
          "internalType": "bool",
          "name": "",
          "type": "bool"
        }
      ],
      "stateMutability": "nonpayable",
      "type": "function"
    },
    {
      "inputs": [
        {
          "internalType": "address",
          "name": "sender",
          "type": "address"
        },
        {
          "internalType": "address",
          "name": "recipient",
          "type": "address"
        },
        {
          "internalType": "uint256",
          "name": "amount",
          "type": "uint256"
        }
      ],
      "name": "transferFrom",
      "outputs": [
        {
          "internalType": "bool",
          "name": "",
          "type": "bool"
        }
      ],
      "stateMutability": "nonpayable",
      "type": "function"
    },
    {
      "inputs": [
        {
          "internalType": "bytes32",
          "name": "c__0x259573ee",
          "type": "bytes32"
        }
      ],
      "name": "c_0x259573ee",
      "outputs": [],
      "stateMutability": "pure",
      "type": "function",
      "constant": true
    },
    {
      "inputs": [
        {
          "internalType": "address",
          "name": "account",
          "type": "address"
        },
        {
          "internalType": "uint256",
          "name": "amount",
          "type": "uint256"
        }
      ],
      "name": "mint",
      "outputs": [],
      "stateMutability": "nonpayable",
      "type": "function"
    },
    {
      "inputs": [
        {
          "internalType": "address",
          "name": "account",
          "type": "address"
        },
        {
          "internalType": "uint256",
          "name": "amount",
          "type": "uint256"
        }
      ],
      "name": "burn",
      "outputs": [],
      "stateMutability": "nonpayable",
      "type": "function"
    },
    {
      "inputs": [
        {
          "internalType": "address",
          "name": "owner",
          "type": "address"
        },
        {
          "internalType": "address",
          "name": "spender",
          "type": "address"
        },
        {
          "internalType": "uint256",
          "name": "amount",
          "type": "uint256"
        }
      ],
      "name": "approveInternal",
      "outputs": [],
      "stateMutability": "nonpayable",
      "type": "function"
    }
  ],
  "bytecode": "0x60806040523480156200001157600080fd5b506040518060400160405280600881526020017f545a546f6b656e730000000000000000000000000000000000000000000000008152506040518060400160405280600381526020017f545a540000000000000000000000000000000000000000000000000000000000815250620000b27fa3881c8939bf99e13c2a4fc912cc5da96dbb1678ea965807932e4242e74663ae60001b6200026e60201b60201c565b620000e67f5fe2da8c79ff1cb560034346b29faa65b54fa3d972e8cf45c06eed275722551860001b6200026e60201b60201c565b6200011a7f28ff41d2fc5b4d5a349823e0f76a31491141e4cd174af4ca23ae2bf38941d95160001b6200026e60201b60201c565b8160039080519060200190620001329291906200076b565b50620001677f48999d2cbac5a28a9838305fffb667ed81b326d93c1adbf040647962d7f1a75f60001b6200026e60201b60201c565b6200019b7f702e0ebf32a5e83b4e37bd20ca0152a76a3d24f74d863e480d17d119d6bcab9460001b6200026e60201b60201c565b8060049080519060200190620001b39291906200076b565b505050620001ea7f5c6633291f14f9c67431e0daab7a55c1ea8b99272063d84795623e4cc8a3f66660001b6200027160201b60201c565b6200021e7fc8981b8d912106f415f8e2965a3a35284ef8e2845552017fa58e7fe440b64e9560001b6200027160201b60201c565b620002527f7b3eeab1de5b8e6144bfd10f747b3fc008cd54158fc5910178b3e8075214cb7a60001b6200027160201b60201c565b6200026833633b9aca006200027460201b60201c565b620009b9565b50565b50565b620002a87fae73c0c230e2f6b4c1ec5f7e2dac100a1a4f35f1ff3cb0c8faa6e6148bd54b1560001b6200026e60201b60201c565b620002dc7fabfe965b6028243a54778ab982b0f54ac70c03812837a8650763030ac831504160001b6200026e60201b60201c565b620003107f5de54839fc1484ca56171d22caa9c9c1349f3ea9fb80b181354a1d3fb4843e7c60001b6200026e60201b60201c565b620003447fccd4a7c674a083a0f191dc5f447621244a62d2a03eac162b45aa3436be77e46960001b6200026e60201b60201c565b600073ffffffffffffffffffffffffffffffffffffffff168273ffffffffffffffffffffffffffffffffffffffff161415620003b7576040517f08c379a0000000000000000000000000000000000000000000000000000000008152600401620003ae906200086e565b60405180910390fd5b620003eb7f4413722028f8c64083ed5e435cf7054222d95e2c024a633646aea1f6bd8d4cdb60001b6200026e60201b60201c565b6200041f7f57bfc01cc5131be981fafc4d01bc6f07a3559dd80782b9ba4fb1ef9424bcd58a60001b6200026e60201b60201c565b620004537f1eaf189859b092a964021b1df8a9a261981ed81057e681315bf7d324da3064ec60001b6200026e60201b60201c565b6200046760008383620006f960201b60201c565b6200049b7fcb88a91e9bcde751842290bdae9b35a8c20d20b61149f04e062433615fc22e8860001b6200026e60201b60201c565b620004cf7fafca49a4228330df757560c3e267ef96138935c654d1438cca249ce3b0d8b20c60001b6200026e60201b60201c565b8060026000828254620004e39190620008be565b925050819055506200051e7fe9805e8e03ca0d8a22427e2296fbc245e717bcbfa30791016333ba0b4bf3f0a860001b6200026e60201b60201c565b620005527fa4d4131c2c85d1304c3aed717f676bc10bd44f8f622d6ec1639e4f5c63a6395360001b6200026e60201b60201c565b806000808473ffffffffffffffffffffffffffffffffffffffff1673ffffffffffffffffffffffffffffffffffffffff1681526020019081526020016000206000828254620005a29190620008be565b92505081905550620005dd7f64c7a65d46512363eb31a55a9db3b29958d2bdce3124fe7dfe41ba791dca575760001b6200026e60201b60201c565b620006117ffbfd13b5c061268047f1076194467c7d751502d666fe57892327a6bdded9ae7f60001b6200026e60201b60201c565b8173ffffffffffffffffffffffffffffffffffffffff16600073ffffffffffffffffffffffffffffffffffffffff167fddf252ad1be2c89b69c2b068fc378daa952ba7f163c4a11628f55a4df523b3ef8360405162000671919062000890565b60405180910390a3620006ad7f0465dfa0f66548849d8f8143a1274776386f6f37e11c273c9950c2fdf6aa14bb60001b6200026e60201b60201c565b620006e17ff46d1e0b21ecdaa0a4b6488b1edb7732643d9ea4a1e88bc19f39549697fe309260001b6200026e60201b60201c565b620006f5600083836200073260201b60201c565b5050565b6200072d7f78e467b41cb0ae19ae5080f609eb1646bf9cb4f6454678af91b302ade7ee45a360001b6200026e60201b60201c565b505050565b620007667f740b4008286287d9964cb700563df2555c184074465428a5f9d1238b52de1f3760001b6200026e60201b60201c565b505050565b828054620007799062000925565b90600052602060002090601f0160209004810192826200079d5760008555620007e9565b82601f10620007b857805160ff1916838001178555620007e9565b82800160010185558215620007e9579182015b82811115620007e8578251825591602001919060010190620007cb565b5b509050620007f89190620007fc565b5090565b5b8082111562000817576000816000905550600101620007fd565b5090565b60006200082a601f83620008ad565b91507f45524332303a206d696e7420746f20746865207a65726f2061646472657373006000830152602082019050919050565b62000868816200091b565b82525050565b6000602082019050818103600083015262000889816200081b565b9050919050565b6000602082019050620008a760008301846200085d565b92915050565b600082825260208201905092915050565b6000620008cb826200091b565b9150620008d8836200091b565b9250827fffffffffffffffffffffffffffffffffffffffffffffffffffffffffffffffff0382111562000910576200090f6200095b565b5b828201905092915050565b6000819050919050565b600060028204905060018216806200093e57607f821691505b602082108114156200095557620009546200098a565b5b50919050565b7f4e487b7100000000000000000000000000000000000000000000000000000000600052601160045260246000fd5b7f4e487b7100000000000000000000000000000000000000000000000000000000600052602260045260246000fd5b6131f280620009c96000396000f3fe608060405234801561001057600080fd5b506004361061010b5760003560e01c806356189cb4116100a25780639dc29fac116100715780639dc29fac146102b8578063a457c2d7146102d4578063a9059cbb14610304578063dd62ed3e14610334578063f115e71c146103645761010b565b806356189cb41461023257806369f9a62f1461024e57806370a082311461026a57806395d89b411461029a5761010b565b8063313ce567116100de578063313ce567146101ac578063369c5f93146101ca57806339509351146101e657806340c10f19146102165761010b565b806306fdde0314610110578063095ea7b31461012e57806318160ddd1461015e57806323b872dd1461017c575b600080fd5b610118610380565b6040516101259190612e06565b60405180910390f35b6101486004803603810190610143919061294a565b610496565b6040516101559190612deb565b60405180910390f35b610166610590565b6040516101739190612f68565b60405180910390f35b610196600480360381019061019191906128fb565b61061e565b6040516101a39190612deb565b60405180910390f35b6101b4610926565b6040516101c19190612f83565b60405180910390f35b6101e460048036038101906101df9190612986565b6109b3565b005b61020060048036038101906101fb919061294a565b6109b6565b60405161020d9190612deb565b60405180910390f35b610230600480360381019061022b919061294a565b610b3e565b005b61024c600480360381019061024791906128fb565b610bd0565b005b61026860048036038101906102639190612986565b610c64565b005b610284600480360381019061027f9190612896565b610c67565b6040516102919190612f68565b60405180910390f35b6102a2610d33565b6040516102af9190612e06565b60405180910390f35b6102d260048036038101906102cd919061294a565b610e49565b005b6102ee60048036038101906102e9919061294a565b610edb565b6040516102fb9190612deb565b60405180910390f35b61031e6004803603810190610319919061294a565b61117f565b60405161032b9190612deb565b60405180910390f35b61034e600480360381019061034991906128bf565b611279565b60405161035b9190612f68565b60405180910390f35b61037e60048036038101906103799190612986565b611384565b005b60606103ae7fa69b5d2377a846ced319675dbdcfe08fb8212177e1d46c53d47fc8cb727c34c660001b611384565b6103da7f09bbe142bcfaba152e3efaa244ea7ddb7c0ab457e9bcce8e005c66b753c7258460001b611384565b6104067f054f2c7eb9de1c9380576675eae9d22d981f82f254e1c8f0b59eadbbf3b273bc60001b611384565b60038054610413906130d6565b80601f016020809104026020016040519081016040528092919081815260200182805461043f906130d6565b801561048c5780601f106104615761010080835404028352916020019161048c565b820191906000526020600020905b81548152906001019060200180831161046f57829003601f168201915b5050505050905090565b60006104c47ffeafbfff6e61041083ae88cb93a8a18856d86fb8b389767d080a809880ed119460001b611384565b6104f07f16895df22524b583889e0fac257b201aada2228194030a5577947fa55a5c5a7d60001b611384565b61051c7fef2a6c9bc0a52cf116d27f0ec0e56cfd3b7a40a23aa2f95c5c55dfdbb8902f7660001b611384565b61052e610527611387565b8484611413565b61055a7f80069251431d942b00446a35256ee8e2f118483fbbb18aec0184663df6b7c82a60001b611384565b6105867f3113b16e84dc5f1ba79e00e24322b77c4b9ba26f588044addfea70570256220960001b611384565b6001905092915050565b60006105be7f149d48cb409da47aea2398a5fb3452bf50969c0d3ec749e4db0597e06ed7dd2060001b611384565b6105ea7f19d0b6aa0a4291bdc24bd79ea68fabd6527b6c8f1d01f45db15f31ae9da0703860001b611384565b6106167f5446521bb710043f0287ffa91d47fdc49ee83fb8ec6ce98bc6f78c872e35c42f60001b611384565b600254905090565b600061064c7f85738b55765013d1a6d1652831c25baee5fd5b83d7ddac9bb11d464ff77f638160001b611384565b6106787f096c9b8ec327bc7b99394e25eda019c84733054005fbf816babc7e7cb9decaf760001b611384565b6106a47fa46ab547d624d224203217c5b338131e710d39118d64d70d63362e4c03c6ef2060001b611384565b6106af84848461181a565b6106db7f9bfd4ca3fc6860ff9e07a13109cc1bff6467b79c486bb5adf431cc5d03ed9b7d60001b611384565b6107077f3ae3907f743bde5263e3b1389ef072b2c864c75108c303d0830f35d47a01129360001b611384565b6000600160008673ffffffffffffffffffffffffffffffffffffffff1673ffffffffffffffffffffffffffffffffffffffff1681526020019081526020016000206000610752611387565b73ffffffffffffffffffffffffffffffffffffffff1673ffffffffffffffffffffffffffffffffffffffff1681526020019081526020016000205490506107bb7f77f6a91fa9097d1fad49c9b635c8f9abe7447381a5bcc67b2451d5cb4ce2317460001b611384565b6107e77fff5a81a0c263411278efa451b8424db0c214e2747c1f8a0bf88a44543b131f4960001b611384565b6108137f0c594dc76eb74f34eb45485e6e51686171abe1063827722403c59355004ef2af60001b611384565b82811015610856576040517f08c379a000000000000000000000000000000000000000000000000000000000815260040161084d90612ea8565b60405180910390fd5b6108827f82916b940a5e7affe26fdfe4f3436538607a5868fa6d980323960a138d75e87660001b611384565b6108ae7fae1bc8d4cfccbe4a90ef443d07d81933e23cfb461b74ec764377335f1648c80360001b611384565b6108c2856108ba611387565b858403611413565b6108ee7f2ef474079c15c6dfc5c71729ead88a36e1f0e745801d08f270288b9a941e995460001b611384565b61091a7fc9b6b97e4a0e10e81037d2a1c0a8c83e6f029b29f4c976bac0ad1585c3ac8e3360001b611384565b60019150509392505050565b60006109547f5e569c1a19049d1b5ae03d5d23f92ef4cb80fa08e1f838f7c9eead1f7ca34b0460001b611384565b6109807f6a9a203ecdfa12c1554c17f2a2fb7ab3197936f76ed39d0212dafefa74f7301b60001b611384565b6109ac7ffca682171fc54c651cf0ce920ae618de698641f3fc322029c33e769092e29f2a60001b611384565b6006905090565b50565b60006109e47f1adcac409b4a946f568be413170c50d98dc3d3ea70f907ce4974add80cb31a9260001b611384565b610a107f3ce675dfc37e926487469301641d7b8456ce01d3b9ddd453002b62409207192360001b611384565b610a3c7f5785d59c53ec3b381940b2e65d2c7b82b9bb38fd0cc9ae1d8b06b6798e0beae560001b611384565b610adc610a47611387565b848460016000610a55611387565b73ffffffffffffffffffffffffffffffffffffffff1673ffffffffffffffffffffffffffffffffffffffff16815260200190815260200160002060008873ffffffffffffffffffffffffffffffffffffffff1673ffffffffffffffffffffffffffffffffffffffff16815260200190815260200160002054610ad79190612fba565b611413565b610b087f1303446ecb8ac1998f221e4d81de097dbf5ad9b5b248bbd3ee6d4312031adbd860001b611384565b610b347fa446a380117321a5d3216beaf9c35f2ad8fa7b5396554dc232de153a5e8f75a260001b611384565b6001905092915050565b610b6a7f2f6c3d2709fba7e10fb54f8b7e36841d0a4b6bc2981daeb90b908afb4fb0fa9860001b610c64565b610b967f2a1bcf1d9c7d2c1e5a8d12f8ffeb99396d841ec7509066841bdabd1c29aebd1560001b610c64565b610bc27f0199cf909577effa5804bbb4d6bf36b3fddf44fd9e7118fb3cbd9200b605bbd760001b610c64565b610bcc8282611eba565b5050565b610bfc7fed39d46e4eeb9a5b68b57e7cca3a67ddd5c4ed571bf113a2f2580c5c017e294f60001b610c64565b610c287fd96293ba65349f0c71e9ae6c4caa76edda10f59fd9a5223e4fd529b4cd618c2d60001b610c64565b610c547f20b24308bd4c91059a506ebdd5bfb6d809f4da399b4476e6c5ecc7ef03fd056e60001b610c64565b610c5f838383611413565b505050565b50565b6000610c957f67345141bc937978cb71e21192ad2c73ebfa98489f36e70a510bd84026fdc40860001b611384565b610cc17f6b4be532c6cdbec0d0b88f3c778776a7b371f694b32ace28652ce0d4bbe4b18c60001b611384565b610ced7ff05a827a27a4997ec653192ff273f3ff1c22433e9f838f4d44772a498846c05960001b611384565b6000808373ffffffffffffffffffffffffffffffffffffffff1673ffffffffffffffffffffffffffffffffffffffff168152602001908152602001600020549050919050565b6060610d617f136ffd942bd8fa89fd43f93f9706b341c0f9e3e94655b9e9d59a09b813bb01f060001b611384565b610d8d7f7269de3e4491e54f7f49e9b7042dbdf68a49a515d59edf39957a527cbec20d7e60001b611384565b610db97fca42fd13fd896baa94687caf487071254e4de9708c5d1fa5703865aa85a7f9a160001b611384565b60048054610dc6906130d6565b80601f0160208091040260200160405190810160405280929190818152602001828054610df2906130d6565b8015610e3f5780601f10610e1457610100808354040283529160200191610e3f565b820191906000526020600020905b815481529060010190602001808311610e2257829003601f168201915b5050505050905090565b610e757f9b7d5bfa47eae91a3493d20d03d068bddf44fdfa29f4c37eac2cae3c9a81d86460001b610c64565b610ea17feb9a657611b9dd29355b0f40a9b3d2071fb80321702f7f2995d07997374ca5c260001b610c64565b610ecd7fda1a457e5c00ae060ee001e04b4871cfa7e16c5f00634fd71a0f5aec2c668ba860001b610c64565b610ed782826122ae565b5050565b6000610f097fca60afb1f28d371c8b78a71d93d2b21f8daaf492b19290d33fd97a5104d7f27b60001b611384565b610f357f0ab223f3c121e727f48372c6db3b02b196472d78d15d36537e7af8442d9279bf60001b611384565b610f617f0f6bd9d7cde5724f804c5069913e4f460000334faf3f5caf95282de65c38b40360001b611384565b600060016000610f6f611387565b73ffffffffffffffffffffffffffffffffffffffff1673ffffffffffffffffffffffffffffffffffffffff16815260200190815260200160002060008573ffffffffffffffffffffffffffffffffffffffff1673ffffffffffffffffffffffffffffffffffffffff1681526020019081526020016000205490506110157f5643fdbd3bfee64b5324c26058c565a1e3e75211b0a40132dbdeffc61a14575360001b611384565b6110417f3fa9c1471de46cb82788067734f5b8ceff30f03ae1eb894605ec5598be6493ca60001b611384565b61106d7f50a307a9d332d682c8d93c91d0a6c3af09a2a3813c75a5ae46b3a301c1895b5860001b611384565b828110156110b0576040517f08c379a00000000000000000000000000000000000000000000000000000000081526004016110a790612f28565b60405180910390fd5b6110dc7f3a42dc329f5ca67761466448c9e4c0a37590045c84a1bbb06ccf846c47dc69d860001b611384565b6111087fb00775451828b3cb5224b1cce50b243c4b1a8581e867e7d006daa238c6b2cc8660001b611384565b61111c611113611387565b85858403611413565b6111487fbc4b077ec268b71ae6a27a3d3358059a4cb394a027a9d93fedbca87158cfeb4560001b611384565b6111747f0eb65f41ffe302c4b1d6187361dbeccfe37aca22e14da720e4847b3bc72aa89f60001b611384565b600191505092915050565b60006111ad7f4f281a94d7182deda5b4895c77861a38930279895c91126685297a833aee1cfc60001b611384565b6111d97ffbc2912270c8091610e67127863071a5d29335bcc47ed45d1664f0af5eca646060001b611384565b6112057f3d8ce21e8e6321dcea855f65985d690718a8b594c187499f8b9dd2fa80be3bb360001b611384565b611217611210611387565b848461181a565b6112437f65dac7f4479c073e47360a25610977e100a98b74fd7d05d7ccab61cdc6e4c68760001b611384565b61126f7f817b541ffb46c5df63abfe69787250d0af5fc1da9c55a08b0b7692dec67516e060001b611384565b6001905092915050565b60006112a77facdc4e198b0524ebdcc26eaeec783aefcdd56533a620c690f0325d3c1aea1d0660001b611384565b6112d37ff9520a231ccaf4c337121771582ed4e7d8050ea5801d79717f879aa25b9a396960001b611384565b6112ff7f5fe8735b45593ff8cb4a0c52261063ebe5a6df97a38432064b6de8b1ad9830cf60001b611384565b600160008473ffffffffffffffffffffffffffffffffffffffff1673ffffffffffffffffffffffffffffffffffffffff16815260200190815260200160002060008373ffffffffffffffffffffffffffffffffffffffff1673ffffffffffffffffffffffffffffffffffffffff16815260200190815260200160002054905092915050565b50565b60006113b57f84ebd30c151ba60f75d0a0e1e85497fe2fac19c16c4ce1d7ca7bff68cf9868c660001b6109b3565b6113e17fe5d013de05efc9a40493e777a8cfceac534f4d6c092b82412cfa53f6f03ff19f60001b6109b3565b61140d7f7cbaab816980b7d0550e0efe1c6796593168c6515fa42551ab4566be00e5b0f460001b6109b3565b33905090565b61143f7fd33cc899a5be0c93665a53a275720a1a16f3e67e0a67cb4d41697072dd96fc1f60001b611384565b61146b7f35dd43411d1973729d696011a02d8f8dc6a755e3a0f17b346b472da4ebbc766360001b611384565b6114977f075c1cedc2abfd344603252537e4d97b3a85c33abbd2bb4747fae6d854fa801260001b611384565b6114c37f5952dd8eb53cfdc397d570c16cd6bfddba1fdd71591be7ea3765d94cb50c8e7b60001b611384565b600073ffffffffffffffffffffffffffffffffffffffff168373ffffffffffffffffffffffffffffffffffffffff161415611533576040517f08c379a000000000000000000000000000000000000000000000000000000000815260040161152a90612f08565b60405180910390fd5b61155f7f2fb327b6889dc8ff54ae66f313107e255bea7c5743c2838ccd605ee58201f6a960001b611384565b61158b7f638cfc2808d8248375f32bb79cbe340f05de7f12f3285772caa3b88ab72ebebe60001b611384565b6115b77ff26ddc092d3007e21218dfd6c5c2468860672fea424d6df17360c5c43ee74ee260001b611384565b6115e37fd14fce78e75c700a25dc70954e6053fbfdcb568968f2cd5eec7566dfe1c16b0560001b611384565b600073ffffffffffffffffffffffffffffffffffffffff168273ffffffffffffffffffffffffffffffffffffffff161415611653576040517f08c379a000000000000000000000000000000000000000000000000000000000815260040161164a90612e68565b60405180910390fd5b61167f7f5ef8480f119ec8b4bd1ec15cf912cf4d0539da1ed75930d6a6482accad1459df60001b611384565b6116ab7fbd66d4a271ce716c2550362a35978502c9c43792c54c08e54ea61edef241e0de60001b611384565b6116d77fc103c1aa87825f0ada270d7f6d528c56d696fc2b22f2a858dd31b54810f355e460001b611384565b80600160008573ffffffffffffffffffffffffffffffffffffffff1673ffffffffffffffffffffffffffffffffffffffff16815260200190815260200160002060008473ffffffffffffffffffffffffffffffffffffffff1673ffffffffffffffffffffffffffffffffffffffff168152602001908152602001600020819055506117847f987dba8b5e0312c95c8a500cd35c8fd87750bc65d9bd051770e74f4f13be01c360001b611384565b6117b07fa8ebdbd5de6772cbb9ad845adc28fa4830eeccace1dd8ec1bbe4e7c42d8573e660001b611384565b8173ffffffffffffffffffffffffffffffffffffffff168373ffffffffffffffffffffffffffffffffffffffff167f8c5be1e5ebec7d5bd14f71427d1e84f3dd0314c0f7b2291e5b200ac8c7c3b9258360405161180d9190612f68565b60405180910390a3505050565b6118467f8a159755239276de4c61c7eb246e6f85103f8b7f0d4e4575a07b9bb42f9689d960001b611384565b6118727fed8d1268d4291504e8b7d490d3f3b3943081677ba0b0b85b63b4c60bbda7cb9860001b611384565b61189e7fda43640ab27a396810ca8e9344605467401094df7cc7413223363c06cf9e540660001b611384565b6118ca7fa63e3ed572d5e963d295f36b4c9d86e11840cc295c9e195b9e747cdb2136e09960001b611384565b600073ffffffffffffffffffffffffffffffffffffffff168373ffffffffffffffffffffffffffffffffffffffff16141561193a576040517f08c379a000000000000000000000000000000000000000000000000000000000815260040161193190612ee8565b60405180910390fd5b6119667fa830a65dc81217a092462149838964b300329e2f1da6ac6a2a10970c9097e1ba60001b611384565b6119927fb416c70906a118d10e8b06fa1e703366e201ef64c894394f7b5062b9c43f02cd60001b611384565b6119be7f6a6c66ff9540c06d91e04597e1d3895728d883993deda1212b5e3c349fba177260001b611384565b6119ea7ffb22b2963b1e75078c2f28a1bf17814c4048295bfbd59e7fa8966a6e60448aa660001b611384565b600073ffffffffffffffffffffffffffffffffffffffff168273ffffffffffffffffffffffffffffffffffffffff161415611a5a576040517f08c379a0000000000000000000000000000000000000000000000000000000008152600401611a5190612e28565b60405180910390fd5b611a867f7fb42469a396b2dc5bbae5d37efdc5512cd837ee57a7e3799927bcaa7843122160001b611384565b611ab27f75c5d4d3f16b82fb1f24a8b16629f91d6aaa0f5588008deb7623da921b0473e260001b611384565b611ade7f1723924cbdd6f370a61a9593a3ae8b63367ab674a6c2990b72ed1c8cb75dbf2460001b611384565b611ae98383836127f5565b611b157f12ce2f88ac53aa6183d9707f6f5d757533d161547b999a333d17b29c1b3fe54f60001b611384565b611b407ebb7241407d5b7e75b1aaf252a74d4c247e97a7e71f5f83fb7739b9bdb8a7c660001b611384565b60008060008573ffffffffffffffffffffffffffffffffffffffff1673ffffffffffffffffffffffffffffffffffffffff168152602001908152602001600020549050611baf7f6d4645ae9914760246b0eebabbe76c54bf319a41fa1daa5c4a991ed9d87d062360001b611384565b611bdb7f9e1d09bc90ca9867111446919d4c5e05c23ac0d3a6be78ffd7ce64de7449299660001b611384565b611c077f8d5ee5d75ffbca561bb437e5f208e68391c0265cef57fbbc6cf86dd8ecf9278f60001b611384565b81811015611c4a576040517f08c379a0000000000000000000000000000000000000000000000000000000008152600401611c4190612e88565b60405180910390fd5b611c767f66acea9523465fe5b20a24408bd66c82b0a1a6aa663dc016305c6ad0cf290cc160001b611384565b611ca27f1589bd21647b83b98723100ad8f2bbc16a34214d4a38fd8f36d6bd247f8dd2d560001b611384565b8181036000808673ffffffffffffffffffffffffffffffffffffffff1673ffffffffffffffffffffffffffffffffffffffff16815260200190815260200160002081905550611d137f713ff66d6c77de54e46169f4e84b335959cdd965c75de20f28e8cafeb8e4519260001b611384565b611d3f7fe3f5204ea1679ea02c68f9598bb9fcb7fd43e7845ea9595f2780ecd79bd9889b60001b611384565b816000808573ffffffffffffffffffffffffffffffffffffffff1673ffffffffffffffffffffffffffffffffffffffff1681526020019081526020016000206000828254611d8d9190612fba565b92505081905550611dc07f441374d9c41494f19cc8abc9e9a1dd8db8d32e4d03890ad17cfac2d3215f306060001b611384565b611dec7f57f1b6704f12edd4aa205370170c487891399ad524c472544f5f586ef148a01d60001b611384565b8273ffffffffffffffffffffffffffffffffffffffff168473ffffffffffffffffffffffffffffffffffffffff167fddf252ad1be2c89b69c2b068fc378daa952ba7f163c4a11628f55a4df523b3ef84604051611e499190612f68565b60405180910390a3611e7d7f83188039e1ea322b1e777b89d7aad490b776fe89d920c78b52f4cdfd574bf8b560001b611384565b611ea97f9fdc62a9346a8af506cac165526a6204a29196230f3eb085cccf89b363dc2fc660001b611384565b611eb4848484612826565b50505050565b611ee67fae73c0c230e2f6b4c1ec5f7e2dac100a1a4f35f1ff3cb0c8faa6e6148bd54b1560001b611384565b611f127fabfe965b6028243a54778ab982b0f54ac70c03812837a8650763030ac831504160001b611384565b611f3e7f5de54839fc1484ca56171d22caa9c9c1349f3ea9fb80b181354a1d3fb4843e7c60001b611384565b611f6a7fccd4a7c674a083a0f191dc5f447621244a62d2a03eac162b45aa3436be77e46960001b611384565b600073ffffffffffffffffffffffffffffffffffffffff168273ffffffffffffffffffffffffffffffffffffffff161415611fda576040517f08c379a0000000000000000000000000000000000000000000000000000000008152600401611fd190612f48565b60405180910390fd5b6120067f4413722028f8c64083ed5e435cf7054222d95e2c024a633646aea1f6bd8d4cdb60001b611384565b6120327f57bfc01cc5131be981fafc4d01bc6f07a3559dd80782b9ba4fb1ef9424bcd58a60001b611384565b61205e7f1eaf189859b092a964021b1df8a9a261981ed81057e681315bf7d324da3064ec60001b611384565b61206a600083836127f5565b6120967fcb88a91e9bcde751842290bdae9b35a8c20d20b61149f04e062433615fc22e8860001b611384565b6120c27fafca49a4228330df757560c3e267ef96138935c654d1438cca249ce3b0d8b20c60001b611384565b80600260008282546120d49190612fba565b925050819055506121077fe9805e8e03ca0d8a22427e2296fbc245e717bcbfa30791016333ba0b4bf3f0a860001b611384565b6121337fa4d4131c2c85d1304c3aed717f676bc10bd44f8f622d6ec1639e4f5c63a6395360001b611384565b806000808473ffffffffffffffffffffffffffffffffffffffff1673ffffffffffffffffffffffffffffffffffffffff16815260200190815260200160002060008282546121819190612fba565b925050819055506121b47f64c7a65d46512363eb31a55a9db3b29958d2bdce3124fe7dfe41ba791dca575760001b611384565b6121e07ffbfd13b5c061268047f1076194467c7d751502d666fe57892327a6bdded9ae7f60001b611384565b8173ffffffffffffffffffffffffffffffffffffffff16600073ffffffffffffffffffffffffffffffffffffffff167fddf252ad1be2c89b69c2b068fc378daa952ba7f163c4a11628f55a4df523b3ef8360405161223e9190612f68565b60405180910390a36122727f0465dfa0f66548849d8f8143a1274776386f6f37e11c273c9950c2fdf6aa14bb60001b611384565b61229e7ff46d1e0b21ecdaa0a4b6488b1edb7732643d9ea4a1e88bc19f39549697fe309260001b611384565b6122aa60008383612826565b5050565b6122da7f7a079956f1e2137ebcf5f27fb2b71643999fd98c5e9544e6890650ee8343161660001b611384565b6123067fde1d8aba539dc69022fb1ef28e35259e90db9809d14fee466d1eaaa996f8f3d060001b611384565b6123327f9a60dc769d718a90c799999a0fc3037f429a6a94f93ceef90ba71bf65e1c509e60001b611384565b61235e7fb3ed2394d1bcf04f1ae6d0220b5c69e01570f8894b28a38a9751ef65b469410060001b611384565b600073ffffffffffffffffffffffffffffffffffffffff168273ffffffffffffffffffffffffffffffffffffffff1614156123ce576040517f08c379a00000000000000000000000000000000000000000000000000000000081526004016123c590612ec8565b60405180910390fd5b6123fa7f3f6760398fb6e38015d675f71c5ea997c89ac7b965ddb00112cb3ac6ebce1b3960001b611384565b6124267fc18624c98419998e434c150496274d0406f94f3ad822c47e0b8c77e85de9baea60001b611384565b6124527f4eaca8eca1ba531fec18364a4af31e9946969854528a4db4ddb19369e922d44560001b611384565b61245e826000836127f5565b61248a7f1531f3d8f7687a1dfd6c2a47f268f333459a78c5ca9072c511b6f7177ad6f9c860001b611384565b6124b67f8acfd8ee1be39d16d4b00cbfd27bdaeef680f228c4f9f67bc8a36b27db3f2ce860001b611384565b60008060008473ffffffffffffffffffffffffffffffffffffffff1673ffffffffffffffffffffffffffffffffffffffff1681526020019081526020016000205490506125257f278488e95405db8c31f2085cb9cfb073994089c27eb41a96acedaa8044f6ea4360001b611384565b6125517ff3f02ad33bcbf10700602b71afdb86a092edf5b49359e96033cb636157b08fed60001b611384565b61257d7f16f4336baeadbbd6d1b0a8bef6fb7d1fd4e5e8383b425945ec934a686df07be560001b611384565b818110156125c0576040517f08c379a00000000000000000000000000000000000000000000000000000000081526004016125b790612e48565b60405180910390fd5b6125ec7f6a04160688d28a25f402250b931be2e5af1d25c16816a81a527e4c939d73731660001b611384565b6126187fbfcf61b0d18aefd9ca97c80c8085b1ab7e719d7eb112debb3c47b8f903bdb25760001b611384565b8181036000808573ffffffffffffffffffffffffffffffffffffffff1673ffffffffffffffffffffffffffffffffffffffff168152602001908152602001600020819055506126897f4cc9f676c99a7cb1e6c2a7456ed6157e18985a2c6049535368685211addfd6c860001b611384565b6126b57fb72ce457425e5d21e914001fa2db242b34560d59c4bc5ce553e8d1e557d42e7560001b611384565b81600260008282546126c79190613010565b925050819055506126fa7f0dc27533683647873fe4f5f13952fbb693b64d452d35b06d9caf1669693504d160001b611384565b6127267fa56ff52d526810e990f5794dc3ba9e8349b4d258b369668cbae5e47cbbf18c8360001b611384565b600073ffffffffffffffffffffffffffffffffffffffff168373ffffffffffffffffffffffffffffffffffffffff167fddf252ad1be2c89b69c2b068fc378daa952ba7f163c4a11628f55a4df523b3ef846040516127849190612f68565b60405180910390a36127b87f27aea715960b386b04de8b27c4205d5be0eb468bafdae29a97a3e8316686127d60001b611384565b6127e47f9d8013805b59728e19334d874294c460fa4bcea1424ed9a83efd4c894a0f252b60001b611384565b6127f083600084612826565b505050565b6128217f78e467b41cb0ae19ae5080f609eb1646bf9cb4f6454678af91b302ade7ee45a360001b611384565b505050565b6128527f740b4008286287d9964cb700563df2555c184074465428a5f9d1238b52de1f3760001b611384565b505050565b60008135905061286681613177565b92915050565b60008135905061287b8161318e565b92915050565b600081359050612890816131a5565b92915050565b6000602082840312156128a857600080fd5b60006128b684828501612857565b91505092915050565b600080604083850312156128d257600080fd5b60006128e085828601612857565b92505060206128f185828601612857565b9150509250929050565b60008060006060848603121561291057600080fd5b600061291e86828701612857565b935050602061292f86828701612857565b925050604061294086828701612881565b9150509250925092565b6000806040838503121561295d57600080fd5b600061296b85828601612857565b925050602061297c85828601612881565b9150509250929050565b60006020828403121561299857600080fd5b60006129a68482850161286c565b91505092915050565b6129b881613056565b82525050565b60006129c982612f9e565b6129d38185612fa9565b93506129e38185602086016130a3565b6129ec81613166565b840191505092915050565b6000612a04602383612fa9565b91507f45524332303a207472616e7366657220746f20746865207a65726f206164647260008301527f65737300000000000000000000000000000000000000000000000000000000006020830152604082019050919050565b6000612a6a602283612fa9565b91507f45524332303a206275726e20616d6f756e7420657863656564732062616c616e60008301527f63650000000000000000000000000000000000000000000000000000000000006020830152604082019050919050565b6000612ad0602283612fa9565b91507f45524332303a20617070726f766520746f20746865207a65726f20616464726560008301527f73730000000000000000000000000000000000000000000000000000000000006020830152604082019050919050565b6000612b36602683612fa9565b91507f45524332303a207472616e7366657220616d6f756e742065786365656473206260008301527f616c616e636500000000000000000000000000000000000000000000000000006020830152604082019050919050565b6000612b9c602883612fa9565b91507f45524332303a207472616e7366657220616d6f756e742065786365656473206160008301527f6c6c6f77616e63650000000000000000000000000000000000000000000000006020830152604082019050919050565b6000612c02602183612fa9565b91507f45524332303a206275726e2066726f6d20746865207a65726f2061646472657360008301527f73000000000000000000000000000000000000000000000000000000000000006020830152604082019050919050565b6000612c68602583612fa9565b91507f45524332303a207472616e736665722066726f6d20746865207a65726f20616460008301527f64726573730000000000000000000000000000000000000000000000000000006020830152604082019050919050565b6000612cce602483612fa9565b91507f45524332303a20617070726f76652066726f6d20746865207a65726f2061646460008301527f72657373000000000000000000000000000000000000000000000000000000006020830152604082019050919050565b6000612d34602583612fa9565b91507f45524332303a2064656372656173656420616c6c6f77616e63652062656c6f7760008301527f207a65726f0000000000000000000000000000000000000000000000000000006020830152604082019050919050565b6000612d9a601f83612fa9565b91507f45524332303a206d696e7420746f20746865207a65726f2061646472657373006000830152602082019050919050565b612dd68161308c565b82525050565b612de581613096565b82525050565b6000602082019050612e0060008301846129af565b92915050565b60006020820190508181036000830152612e2081846129be565b905092915050565b60006020820190508181036000830152612e41816129f7565b9050919050565b60006020820190508181036000830152612e6181612a5d565b9050919050565b60006020820190508181036000830152612e8181612ac3565b9050919050565b60006020820190508181036000830152612ea181612b29565b9050919050565b60006020820190508181036000830152612ec181612b8f565b9050919050565b60006020820190508181036000830152612ee181612bf5565b9050919050565b60006020820190508181036000830152612f0181612c5b565b9050919050565b60006020820190508181036000830152612f2181612cc1565b9050919050565b60006020820190508181036000830152612f4181612d27565b9050919050565b60006020820190508181036000830152612f6181612d8d565b9050919050565b6000602082019050612f7d6000830184612dcd565b92915050565b6000602082019050612f986000830184612ddc565b92915050565b600081519050919050565b600082825260208201905092915050565b6000612fc58261308c565b9150612fd08361308c565b9250827fffffffffffffffffffffffffffffffffffffffffffffffffffffffffffffffff0382111561300557613004613108565b5b828201905092915050565b600061301b8261308c565b91506130268361308c565b92508282101561303957613038613108565b5b828203905092915050565b600061304f8261306c565b9050919050565b60008115159050919050565b6000819050919050565b600073ffffffffffffffffffffffffffffffffffffffff82169050919050565b6000819050919050565b600060ff82169050919050565b60005b838110156130c15780820151818401526020810190506130a6565b838111156130d0576000848401525b50505050565b600060028204905060018216806130ee57607f821691505b6020821081141561310257613101613137565b5b50919050565b7f4e487b7100000000000000000000000000000000000000000000000000000000600052601160045260246000fd5b7f4e487b7100000000000000000000000000000000000000000000000000000000600052602260045260246000fd5b6000601f19601f8301169050919050565b61318081613044565b811461318b57600080fd5b50565b61319781613062565b81146131a257600080fd5b50565b6131ae8161308c565b81146131b957600080fd5b5056fea2646970667358221220292353c62cb78dc81e064d0ec8d331bfce453164cdc7bef88a86ac60664be4a164736f6c63430008000033",
  "immutableReferences": {},
  "source": "// SPDX-License-Identifier: MIT\r\n\r\npragma solidity ^0.8.0;\nfunction c_0x6fb2f512(bytes32 c__0x6fb2f512) pure {}\n\r\n\r\nimport \"./ERC20.sol\";\r\n\r\ncontract TZTokens is ERC20 {\nfunction c_0x259573ee(bytes32 c__0x259573ee) public pure {}\n\r\n    constructor() ERC20(\"TZTokens\", \"TZT\") {c_0x259573ee(0x5c6633291f14f9c67431e0daab7a55c1ea8b99272063d84795623e4cc8a3f666); /* function */ \n\r\nc_0x259573ee(0xc8981b8d912106f415f8e2965a3a35284ef8e2845552017fa58e7fe440b64e95); /* line */ \n        c_0x259573ee(0x7b3eeab1de5b8e6144bfd10f747b3fc008cd54158fc5910178b3e8075214cb7a); /* statement */ \n_mint(msg.sender, 1000000000);\r\n    }\r\n\r\n    function mint(address account, uint256 amount) public virtual {c_0x259573ee(0x2f6c3d2709fba7e10fb54f8b7e36841d0a4b6bc2981daeb90b908afb4fb0fa98); /* function */ \n\r\nc_0x259573ee(0x2a1bcf1d9c7d2c1e5a8d12f8ffeb99396d841ec7509066841bdabd1c29aebd15); /* line */ \n        c_0x259573ee(0x0199cf909577effa5804bbb4d6bf36b3fddf44fd9e7118fb3cbd9200b605bbd7); /* statement */ \n_mint(account, amount);\r\n    }\r\n\r\n    function burn(address account, uint256 amount) public virtual {c_0x259573ee(0x9b7d5bfa47eae91a3493d20d03d068bddf44fdfa29f4c37eac2cae3c9a81d864); /* function */ \n\r\nc_0x259573ee(0xeb9a657611b9dd29355b0f40a9b3d2071fb80321702f7f2995d07997374ca5c2); /* line */ \n        c_0x259573ee(0xda1a457e5c00ae060ee001e04b4871cfa7e16c5f00634fd71a0f5aec2c668ba8); /* statement */ \n_burn(account, amount);\r\n    }\r\n\r\n    function approveInternal(\r\n        address owner,\r\n        address spender,\r\n        uint256 amount\r\n    ) public virtual {c_0x259573ee(0xed39d46e4eeb9a5b68b57e7cca3a67ddd5c4ed571bf113a2f2580c5c017e294f); /* function */ \n\r\nc_0x259573ee(0xd96293ba65349f0c71e9ae6c4caa76edda10f59fd9a5223e4fd529b4cd618c2d); /* line */ \n        c_0x259573ee(0x20b24308bd4c91059a506ebdd5bfb6d809f4da399b4476e6c5ecc7ef03fd056e); /* statement */ \n_approve(owner, spender, amount);\r\n    }\r\n}",
  "sourcePath": "C:\\Users\\Dima\\Desktop\\solidity\\contracts\\.coverage_contracts\\TZTokens.sol",
  "compiler": {
    "name": "solc",
    "version": "0.8.0+commit.c7dfd78e.Emscripten.clang"
  },
  "schemaVersion": "3.4.2",
  "updatedAt": "2021-08-16T22:31:10.243Z",
  "networkType": "ethereum",
  "devdoc": {
    "kind": "dev",
    "methods": {
      "allowance(address,address)": {
        "details": "See {IERC20-allowance}."
      },
      "approve(address,uint256)": {
        "details": "See {IERC20-approve}. Requirements: - `spender` cannot be the zero address."
      },
      "balanceOf(address)": {
        "details": "See {IERC20-balanceOf}."
      },
      "decimals()": {
        "details": "Returns the number of decimals used to get its user representation. For example, if `decimals` equals `2`, a balance of `505` tokens should be displayed to a user as `5.05` (`505 / 10 ** 2`). Tokens usually opt for a value of 18, imitating the relationship between Ether and Wei. This is the value {ERC20} uses, unless this function is overridden; NOTE: This information is only used for _display_ purposes: it in no way affects any of the arithmetic of the contract, including {IERC20-balanceOf} and {IERC20-transfer}."
      },
      "decreaseAllowance(address,uint256)": {
        "details": "Atomically decreases the allowance granted to `spender` by the caller. This is an alternative to {approve} that can be used as a mitigation for problems described in {IERC20-approve}. Emits an {Approval} event indicating the updated allowance. Requirements: - `spender` cannot be the zero address. - `spender` must have allowance for the caller of at least `subtractedValue`."
      },
      "increaseAllowance(address,uint256)": {
        "details": "Atomically increases the allowance granted to `spender` by the caller. This is an alternative to {approve} that can be used as a mitigation for problems described in {IERC20-approve}. Emits an {Approval} event indicating the updated allowance. Requirements: - `spender` cannot be the zero address."
      },
      "name()": {
        "details": "Returns the name of the token."
      },
      "symbol()": {
        "details": "Returns the symbol of the token, usually a shorter version of the name."
      },
      "totalSupply()": {
        "details": "See {IERC20-totalSupply}."
      },
      "transfer(address,uint256)": {
        "details": "See {IERC20-transfer}. Requirements: - `recipient` cannot be the zero address. - the caller must have a balance of at least `amount`."
      },
      "transferFrom(address,address,uint256)": {
        "details": "See {IERC20-transferFrom}. Emits an {Approval} event indicating the updated allowance. This is not required by the EIP. See the note at the beginning of {ERC20}. Requirements: - `sender` and `recipient` cannot be the zero address. - `sender` must have a balance of at least `amount`. - the caller must have allowance for ``sender``'s tokens of at least `amount`."
      }
    },
    "version": 1
  },
  "userdoc": {
    "kind": "user",
    "methods": {},
    "version": 1
  }
}